:020000040800F2
:100000000010002061260008612200086322000819
:1000100000000000000000000000000000000000E0
:100020000000000000000000000000006522000841
:10003000000000000000000067220008692200089C
:10004000B126000800000000B1260008B126000813
:10005000B1260008B1260008B1260008B126000824
:1000600000000000B1260008B1260008B1260008F3
:10007000B12600087122000881220008000000005B
:10008000B12600080000000000000000B1260008B2
:1000900000000000B126000889220008B1260008EF
:1000A00000000000B126000800000000B126000892
:1000B0000000000000000000000000000000000040
:1000C00010B5064C2378002B07D1054B002B02D02E
:1000D000044800E000BF0123237010BD4404002049
:1000E0000000000048290008044B10B5002B03D085
:1000F0000349044800E000BF10BDC04600000000F6
:10010000480400204829000802B471464908490003
:10011000095649008E4402BC7047C04602B471467D
:1001200049084900095C49008E4402BC7047C0463A
:10013000002243088B4274D303098B425FD3030A26
:100140008B4244D3030B8B4228D3030C8B420DD339
:10015000FF22090212BA030C8B4202D312120902C7
:1001600065D0030B8B4219D300E0090AC30B8B4205
:1001700001D3CB03C01A5241830B8B4201D38B03B3
:10018000C01A5241430B8B4201D34B03C01A524158
:10019000030B8B4201D30B03C01A5241C30A8B429B
:1001A00001D3CB02C01A5241830A8B4201D38B0286
:1001B000C01A5241430A8B4201D34B02C01A52412A
:1001C000030A8B4201D30B02C01A5241CDD2C3099C
:1001D0008B4201D3CB01C01A524183098B4201D318
:1001E0008B01C01A524143098B4201D34B01C01A03
:1001F000524103098B4201D30B01C01A5241C3087B
:100200008B4201D3CB00C01A524183088B4201D3E9
:100210008B00C01A524143088B4201D34B00C01AD5
:100220005241411A00D20146524110467047FFE741
:1002300001B5002000F006F802BDC0460029F7D045
:1002400076E770477047C046F0B54F464646D646FB
:100250004502C0B547000C1C6D0A3F0EC60F002FAB
:1002600000D170E0FF2F00D175E0EB008025ED0498
:100270001D43002399469A467F3F6002430A9846F1
:1002800063001B0EE40F002B4ED0FF2B46D04246DE
:10029000D0008022D2040243904600227F3B3100EE
:1002A000FF1A4B466140C9B213430F2B00D9B5E08A
:1002B0006E489B00C3589F4600239846260045463B
:1002C00092465346022B00D189E0032B00D19EE0D9
:1002D000012B18D03B007F33002B69DD6A0704D067
:1002E0000F222A40042A00D004352A0103D5604B8E
:1002F0001D403B008033FE2B00DD70E0AD016D0A38
:10030000D8B202E00E0000200025C0052843F60701
:100310003043E0BCBA46B146A846F0BD4346002B88
:100320003FD10222FF3F03E04346002B2DD10122A3
:1003300031004B466140C9B213430F2B34D84D48AE
:100340009B00C3589F46002D13D104239946033BBD
:1003500000279A4691E7002D05D108239946063BD0
:10036000FF279A4689E70C239946093BFF279A46BF
:1003700083E7280000F010F97627431F9D400023F3
:100380007F4299469A463F1A77E7404600F004F9C3
:100390004246431F9A4076235B4290461B1A002236
:1003A0007DE7FF2303227AE70E00FF200025ACE75C
:1003B0000120C01A1B28A6DC9E372A00BD40C2407F
:1003C0006B1E9D4115436B0704D00F232B40042B5C
:1003D00000D004356B0144D50120002595E7FF20AE
:1003E000002592E780250026FF20ED038DE70023FE
:1003F00098468020C003054209D04346034206D1F7
:10040000454605436D022600FF206D0A7DE78020EA
:10041000C00305436D02FF206D0A76E742466B017B
:100420005001834219D21B220025013F01261C00E6
:100430006D005B00002C01DB984201D81B1A35438C
:10044000013A002AF3D15A1E93411D433B007F33EA
:100450000E00002B00DD41E7AAE71A2201251B1A36
:10046000E4E7AD0100206D0A4FE7C04660290008AF
:10047000FFFFFFF7A0290008F8B5002813D0C31725
:10048000C6185E40C40F300000F086F89E230500B9
:100490001B1A962B0FDC082801DD083DAE407602C2
:1004A000760AD8B202E0002400200026C0053043BE
:1004B000E4072043F8BD992B0CDD05223100121A08
:1004C000D1400A00010030001B318840411E8841A4
:1004D00002431600052D12DC31000D4F3940720722
:1004E00009D00F203040042805D004314A0102D53C
:1004F0009F2339405B1B89014E0AD8B2D6E76A1F99
:1005000096403100024F39407207F4D0E9E7C04607
:10051000FFFFFFFB70B5051E0ED000F03DF89E23D7
:1005200004001B1A962B0CDC082801DD083CA540B2
:100530006D026D0AD8B201E000200025C0052843F5
:1005400070BD992B09DD020029001B3291404A1E23
:1005500091410522121AD5400D43052C12DC2900C9
:100560000C4E31406A0709D00F202840042805D0DE
:1005700004314A0102D59F2331401B1B89014D0ADA
:10058000D8B2DBE7621F95402900024E31406A076E
:10059000F4D0E9E7FFFFFFFB1C2101231B04984275
:1005A00001D3000C10391B0A984201D3000A083904
:1005B0001B09984201D30009043902A2105C4018BB
:1005C0007047C0460403020201010101000000005F
:1005D000000000000B4B10B51A004A334832127865
:1005E0001878094C5043FFF747FFFE22002392057D
:1005F00020606360A3602361E3606261A361E361E3
:1006000010BDC046940400206004002010B50E4CBC
:10061000482220000D4902F06FF800220C4B3C21CB
:100620001A805A609A600022DA602300094A48332F
:100630001A802300A0224A3320001A7000F0E2FD45
:10064000054800F0B5FD10BD9404002034050020DD
:100650008004002011440000C4050020F8B50025E6
:10066000144E154C32681368526ADB06DB0F637058
:1006700065572B045D1BA368AD18E81A6560FFF78A
:10068000FBFE33004933071C1878FFF743FF011CBA
:10069000381CFFF7D9FD4A36E060071C3078FFF7B9
:1006A00039FF011C381CFFF7CFFD0023A560206136
:1006B0002370F8BD940400208004002070B59024BD
:1006C000E40520000022102100F07CF92000002227
:1006D000202100F077F9094C094D4822210028001B
:1006E00002F00AF8E3684C35042120002B7001F079
:1006F00023FA002223689A6370BDC04634050020A7
:10070000E004002010B50122041E02D001280BD104
:10071000002290201021C00500F054F99020220002
:100720002021C00500F04EF910BD000070B5050095
:10073000FA200D4B80001978FFF7FAFC0B4B0100F3
:100740001868FFF7F5FC00F06DF804000120002C9C
:1007500009D1032D07D802382200290000F02CF817
:100760002000034B1D6070BD00000020140000201D
:10077000040000201023064A10B5116803200B4323
:100780001360FFF7D3FF01F053FD002010BDC046FA
:1007900000200240034A044B11681B785B18136069
:1007A0007047C0463005002000000020014B18684B
:1007B0007047C0463005002030B5FF2503242A00CD
:1007C0000440E400A24089012940D243A140C3B2C1
:1007D00000280ADBC0240B4B80088000C018A4004E
:1007E00003591A401143015130BD0F200340083B0B
:1007F00005489B089B001B18D86902401143D9612A
:10080000F2E7C04600E100E000ED00E0002805DB73
:100810001F2318401E3B8340014A13607047C046A7
:1008200000E100E08022431E5204012093420DD2D9
:10083000C021074A07485360036A09061B021B0AC6
:100840000B43036200200723906013607047C0468B
:1008500010E000E000ED00E00023F0B587B00A688A
:100860001400DC4001D107B0F0BD012514009D400B
:100870002C4001942A4200D195E04A685E009446DB
:100880000322644622400324B440E4430294541EED
:10089000012C2AD88768029C2740CC68B4403C438E
:1008A000846044680127AC432500644624093C4029
:1008B0009C402C434460C568029C25408C68B44031
:1008C0002C43C460022A12D1DC080725A4000419B5
:1008D000276A03940F241D40AD00AC40A7430C6968
:1008E000AC402743039C276201E0032AE3D104685C
:1008F000029DB24025402C0014430460C02462468F
:10090000A40222424FD00125284A90279469FF056E
:100910002C43946192699C082A400592059A244AC6
:10092000A400A4180F2202351D40AD00AA40A668FD
:1009300096430022B8420CD01E4F0132B84208D074
:100940001D4F0132B84204D01C4F0132B84200D0D2
:100950000232AA4067463243A260194A019C966857
:10096000019DE4433543FF0201D43500254067462D
:100970009560D668019D3543BF0201D435002540FE
:100980006746D5605668019D3543BF0301D43500E5
:100990002540674655601568019E2E43FF0301D42C
:1009A00025402E001660013359E7C0460010024072
:1009B000000001400004004800080048000C004806
:1009C00000040140002A01D0816170478162FCE788
:1009D000F0B5040085B0002845D00368DB072FD4AC
:1009E00023689B0700D581E023681B0700D5BCE086
:1009F00023685B0700D5DFE02368DB061AD5626950
:100A00000423B54D012A00D04AE1696B02270B434C
:100A10006B636B6B1A436A63FFF7C8FE06006B6B70
:100A20003B4200D135E1F8216A6BA3698A43DB00C0
:100A300013436B63236A002B00D059E100202AE0A6
:100A40000C21A54D6A680A40042A06D06B680B4049
:100A5000082B0AD16B68DB0307D52B689B03BFD536
:100A60006368002BBCD1012015E06368012B14D111
:100A700080232A685B0213432B60FFF797FE8027D1
:100A80000600BF022B683B42AAD1FFF78FFE801BF6
:100A90006428F7D9032005B0F0BD002B16D12B68D0
:100AA0008E4A802713402B602B688D4ABF0213406B
:100AB0002B60FFF77BFE06002B683B4200D18FE7DF
:100AC000FFF774FE801B6428F6D9E3E7052B05D1F8
:100AD00080232A68DB0213432B60C9E72B687F4A17
:100AE00013402B602B687E4A1340C5E70C227A4DD9
:100AF0006B68134206D06B681340082B10D16B68EB
:100B0000DB030DD42B689B0702D5E368012BAAD128
:100B1000F8212A6823698A43DB0013432B6063E7CB
:100B2000E2680123002A0FD02A68022713432B60B2
:100B3000FFF73CFE06002B683B42E9D1FFF736FE8B
:100B4000801B0228F7D9A5E72A6802279A432A6062
:100B5000FFF72CFE06002B683B4200D144E7FFF76D
:100B600025FE801B0228F6D994E7E26901235A4D3D
:100B7000002A10D06A6A022713436B62FFF716FE41
:100B800006006B6A3B4200D032E7FFF70FFE801B86
:100B90000228F6D97EE76A6A02279A436A62FFF75B
:100BA00005FE06006B6A3B4200D121E7FFF7FEFD20
:100BB000801B0228F6D96DE780220021464D5205A0
:100BC000EB690091134208D1EB691343EB61EB69C8
:100BD00013400393039B012300938027414E7F0022
:100BE00033683B4206D0A368012B13D12A6A134312
:100BF0002B6230E033683B433360FFF7D7FD019051
:100C000033683B42EFD1FFF7D1FD019BC01A642846
:100C1000F6D93FE70122002B14D12B6A0227934318
:100C20002B622B6A033293432B62FFF7BFFD060052
:100C30002B6A3B4216D0FFF7B9FD2B4B801B984225
:100C4000F6D927E7052B16D1296A013B0B432B6206
:100C50002B6A1A432A62FFF7A9FD022706002B6AB6
:100C60003B420FD0009B012B00D0C5E6EB691F4A29
:100C70001340EB61C0E62B6A934304222B622B6A7C
:100C80009343B5E7FFF792FD174B801B9842E6D9D7
:100C900000E7FFF78BFD801B022800D8BFE6F9E6CE
:100CA000053203D16A6B9A436A63BCE66A6B02271A
:100CB000134301226B636B6B93436B63FFF776FD0A
:100CC00006006B6B3B4200D1B4E6FFF76FFD801B63
:100CD0000228F6D9DEE6C04600100240FFFFFEFF04
:100CE000FFFFFBFF0070004088130000FFFFFFEFD5
:100CF0000C21344D6A680A40082A47D0324A022B38
:100D000032D12B68802713402B60FFF74FFD060080
:100D1000BF042B683B4221D10F22EB6A802693430C
:100D2000E26AB6041343EB62616AA36A6A680B4322
:100D300026490A4013436B6080232A685B041343EF
:100D40002B60FFF733FD04002B68334200D075E6BB
:100D5000FFF72CFD001B0228F6D99BE6FFF726FDC6
:100D6000801B0228D5D995E62B68802613402B607E
:100D7000FFF71CFD0400B6042B68334200D15DE68A
:100D8000FFF714FD001B0228F6D983E61800012B9B
:100D900000D180E680216B68606A4902EA6A1940E6
:100DA000814200D05FE60F210A40E16A8A4200D00A
:100DB00059E6F02292031340A26A934200D13DE625
:100DC00051E6C04600100240FFFFFFFEFFFFC2FFDA
:100DD0000C2270B50C4D6B681A40082A11D10F20F7
:100DE0000A4A990C0140545CEA6A09490240895C4C
:100DF000DB0304D50748FFF79BF9604370BD064845
:100E0000FBE70448FAE7C04600100240E02900086A
:100E1000F029000800127A0000093D00F7B504002F
:100E20000E00002801D10120FEBD0122374D2B68A4
:100E300013408B421CD321688B0722D4CB072FD4BD
:100E400001232A681A40B24251D82368304D5B070B
:100E500054D4FFF7BDFF6B682E4A1B061B0FD35CF3
:100E6000D8402D4B18600320FFF760FC0020DBE723
:100E70002B6893430B432B602B6813408B42D2D1DA
:100E8000D9E7234A4B0704D5E0235068DB0003432E
:100E90005360F02053688343A06803435360CDE759
:100EA0001B4F62683B68012A19D19B03BBD5032104
:100EB0007B688B4313437B60FFF778FC01900C2326
:100EC0007A681A4063689B009A42B9D0FFF76EFCBB
:100ED000019BC01A114B9842F1D90320A4E7022AC2
:100EE00002D19B01E3D49EE79B07E0D49BE72A68ED
:100EF0009A432A602A681A42A7D094E76B68084A86
:100F00001340E26813436B60A3E7C0460020024031
:100F100000100240032A000814000020881300007B
:100F2000FFF8FFFF044B054A5B685B055B0FD35C72
:100F3000034A1068D840704700100240132A000886
:100F400014000020F0B50368050085B0DB032AD546
:100F500080220021384C5205E3690091134208D1E8
:100F6000E3691343E361E36913400393039B0123A4
:100F700000938027314E7F0033683B4228D0226A9D
:100F8000C02311009B002E4E19401A4232D1236A11
:100F90001E406B681E43009B2662012B03D1E36950
:100FA000284A1340E3612A68D30706D50320224963
:100FB0000B6B8343A86803430B630020930617D58C
:100FC00010211D4A136B8B43E9680B4313630FE039
:100FD00033683B433360FFF7E9FB019033683B42E2
:100FE000CDD1FFF7E3FB019BC01A6428F6D903209B
:100FF00005B0F0BD6A6813408B42C8D08023226AD6
:10100000206A11005B0203432362236A0E483140C9
:10101000034023622162D307B9D5FFF7C7FB07005E
:101020000222236A1342B2D1FFF7C0FB074BC01B59
:101030009842F5D9DBE7C04600100240007000403E
:10104000FFFCFFFFFFFFFFEFFFFFFEFF8813000025
:1010500070B50124036A026AA243026273224468E3
:10106000856995430A681543022293438A681343AE
:10107000114A904205D0114EB04202D0104EB042FB
:1010800013D10826B343CE6833430426B3439042BA
:1010900005D00A4A904202D0094A904205D1094A35
:1010A0008E6922404C69344314434A684460856128
:1010B0004263036270BDC046002C01400044014001
:1010C00000480140FFFCFFFF70B57325036A164C12
:1010D000026A224002624268C469AC430D682C4334
:1010E000124D2B408D682D022B43114DA8420ED17D
:1010F000104D1D40CB681B022B430F4D2B400F4D55
:101100004E6915408A69324312012A4305E00C4DAD
:10111000A842F4D00B4DA842F1D042604A68C461A5
:10112000C263036270BDC046FFFEFFFFFFFDFFFF0D
:10113000002C0140FFF7FFFFFFFBFFFFFFCFFFFF8A
:101140000044014000480140026A30B5036A114C76
:1011500023400362104C4368C56925400C68240293
:1011600025430E4C22408C68240322430C4CA042A1
:1011700005D00C4CA04202D00B4CA04204D10B4C29
:1011800023404C69A401234343604B68C561036459
:10119000026230BDFFEFFFFFFF8CFFFFFFDFFFFFAD
:1011A000002C01400044014000480140FFBFFFFF08
:1011B0000200030001203D321178814215D1022145
:1011C00011701B68DA680243DA600B4A934202D05E
:1011D0000A4A93420AD107219A6800200A40062A47
:1011E00003D0012219680A431A6070471A68104335
:1011F00018600020F9E7C046002C014000040040C0
:1012000070477047F7B53E22944603008444624617
:1012100007001E001D00019114783F37E2B20092D2
:10122000423643353878019C31782A78C0B2C9B249
:10123000D2B2002C17D10120009A824212D18142F1
:1012400010D102226046027032701A68106A884318
:101250001062106A014311621A68012300201168AC
:101260000B431360FEBD019C042C0AD1012826D13A
:10127000012AF7D101323A702A701A681021106AD7
:10128000E5E7009C012C1AD101281AD10129E9D1E6
:10129000012AE7D16046013101703970317029703F
:1012A0001968086A90430862086A02430A621022B9
:1012B000086A90430862086A02430A62CCE7012088
:1012C000D0E70098CEE7704770477047704702221A
:1012D000036870B5DD681E69040016420DD0154222
:1012E0000BD0053A1A61043202779B699B0700D143
:1012F00071E0FFF7E9FF0023237704231E4211D09A
:101300001D420FD00522236852421A61073222770C
:101310009A69C0239B0020001A4262D0FFF7D4FFD5
:101320000023237708231E420FD01D420DD009222F
:10133000236852421A610D322277DB6920009B0735
:1013400055D0FFF7C1FF0023237710231E4211D091
:101350001D420FD01122236852421A61193222779E
:10136000DA69C0239B0020001A4246D0FFF7ACFF89
:101370000023237701231E4208D01D4206D00222FB
:101380002368524220001A6100F086FF80231E422B
:1013900008D01D4206D081222368524220001A61E3
:1013A00000F029FC40231E4208D01D4206D04122F5
:1013B0002368524220001A61FFF788FF20231E4253
:1013C00008D01D4206D021222368524220001A6113
:1013D00000F010FC70BDFFF776FF2000FFF775FFEF
:1013E00089E7FFF770FF2000FFF76FFF98E7FFF72F
:1013F0006AFF2000FFF769FFA5E7FFF764FF200001
:10140000FFF763FFB4E700001C4A10B50368904281
:1014100002D01B4CA04208D17024A3434C68234344
:1014200090420BD0164CA04208D0164CA04205D0DA
:10143000154CA04202D0154CA04203D1144C2340BD
:10144000CC6823438024A3434C69234303608B6807
:10145000C3620B688362904205D00B4B984202D066
:101460000A4B984201D10B6903630122426103696F
:10147000134202D003699343036110BD002C014065
:1014800000040040002000400044014000480140AA
:10149000FFFCFFFF70B504000120002C21D02500C7
:1014A0003D352B78DAB2002B05D123003C332000E8
:1014B0001A7000F04BFF02232B702068211DFFF7EC
:1014C000A3FF220001230020463213704534083A5E
:1014D000137053709370D3701371537193712370A1
:1014E0002B7070BD70B504000120002C21D02500A8
:1014F0003D352B78DAB2002B05D123003C33200098
:101500001A70FFF77DFE02232B702068211DFFF764
:101510007BFF220001230020463213704534083A35
:10152000137053709370D370137153719371237050
:101530002B7070BD70B504000120002C21D0250057
:101540003D352B78DAB2002B05D123003C33200047
:101550001A70FFF756FE02232B702068211DFFF73B
:1015600053FF220001230020463213704534083A0D
:10157000137053709370D370137153719371237000
:101580002B7070BDF7B504000E000120002C48D070
:1015900025003D352B78DAB2002B05D123003C33F2
:1015A00020001A7000F028FF022321002B7001C9CF
:1015B0001C4A836813408360FFF726FF2268336864
:1015C000916897691943184B01911F40B369B1683D
:1015D0001B020B433B43154F31691F40F36909015F
:1015E0001B020B43F168106A0B43316A09030B437A
:1015F0003B43AA27B8430700716976680801304366
:101600000199384391609361106222000123002008
:10161000463213704334083A1370537013712370B9
:101620002B70FEBDF8BFFFFFFCFCFFFF0303FFFFB5
:1016300070B51024026A036AA3430362154C436821
:10164000856925400C68240225432024A2438C6828
:1016500024012243104CA0420FD18024A243140045
:10166000CA68120122434024A2430C4E4C691E401A
:101670008B6923439B00334305E0094CA042F4D01F
:10168000084CA042F1D043604B68856183630262DD
:1016900070BDC046FF8CFFFF002C0140FFF3FFFF31
:1016A0000044014000480140F8B507003C373B7852
:1016B00004000E0015000220012B0AD001383870FA
:1016C000082A3DD006D8002A17D0042A27D00023A4
:1016D0003B70F8BD0C2AFAD12068FFF735FD802257
:1016E00023681201D9690A43DA61DA691C490A40A0
:1016F000DA613269D96912022FE02068FFF7A8FC8D
:101700000822236899690A4304219A619A698A43E5
:101710009A619A6931690A439A610020D7E7206883
:10172000FFF786FF80222368120199690A439A61B4
:101730009A690B490A409A61326999691202EAE78B
:101740002068FFF7C1FC04212368DA691543DD61D5
:10175000DA698A43DA61DA6931690A43DA61DCE716
:10176000FFFBFFFFF0B50127046A066A1500BE43C0
:1017700006620C4E8269B04210D00B4EB0420DD0C2
:101780003A43F025AA431B010F352B401A430A2385
:101790009C431940214382610162F0BD0326B2439C
:1017A0002A43EEE7002C0140000400400300F7B597
:1017B0003C33019016001A780C000220012A19D03F
:1017C00001381870002E16D10198CB684A6800685D
:1017D0000968FFF7C7FF0C21019B1B689A698A43C0
:1017E0009A619A69A1680A439A6100200023019DC9
:1017F0003C352B70FEBD042E22D11025019B0968BB
:101800001B6862681F6A186AE668A84318629869CC
:10181000334D360705401002324A28431040360C3B
:101820003043A0260A01B74332403A4398611A6216
:101830009A692D490A409A61A26899691202D2E711
:10184000082E26D1019B294D1B6809681A6A1F6A58
:1018500066682F40E0681F62DF690535FF35AF43DA
:101860003E43F0270001BE430F3738403043204E3F
:10187000D86116400A02A02109010A400C21324316
:101880001A62DA698A43DA61DA69A1680A43DA61BD
:10189000ABE70C2EAAD1019B164D1B6809681A6A8A
:1018A000186A67682840E6681862D8690C4D3607E0
:1018B000054038020B4F2843360C384030430E4E5B
:1018C000D86116400A03A02109020A4032431A6275
:1018D000DA6905490A40DA61A268D9691202D5E7D6
:1018E000FFFCFFFFFF0FFFFFFFF3FFFFFFFEFFFF08
:1018F000FFF5FFFFFFEFFFFFFF5FFFFF30B58468DD
:10190000034D0A431B022C4013432343836030BD25
:10191000FF00FFFFF8B5050002233C3504002878DE
:101920001A0001281DD0260001273D362F70337084
:101930002068494A8368134083600B68602B59D044
:1019400035D8402B00D16EE015D8202B0DD00AD809
:1019500010221900914308D03A000123337000236C
:101960002B701000F8BD302BF6D1702182688A43AD
:101970001343072218E0502BEED1CA684C68016A65
:10198000036ABB43F02703628369BB431F00130153
:101990000A2291430A003B43224383610262702280
:1019A000836893431A0057231343836016E0802211
:1019B0005201944600226345CFD080229201934287
:1019C0000ED03A00702BC8D1CB684A688968FFF7FF
:1019D00095FF7723226891680B4393600022BCE750
:1019E000CB684A688968FFF789FF80232268DB019A
:1019F0009168F1E71024036A4A68CF68016A3F03DF
:101A0000A14301628169154C2140A024A3431C001D
:101A10001301702223433943816103628368934336
:101A20001A006723C0E7CA684C68016A036ABB43AF
:101A3000F02703628369BB431F0013010A2291430D
:101A40000A003B432243836102627022836893430E
:101A50001A004723A8E7C0468800FFFFFF0FFFFFDB
:101A60001F2310B5012419408C408A40036AA34308
:101A70000362036A1A43026210BD000010B503003E
:101A80000400002905D101203E331A78824218D083
:101A900010BD04290FD13F331B780120013B5A1E92
:101AA0009341DBB2002BF3D102232200042926D17B
:101AB0003F32137007E0082901D14033ECE741338E
:101AC000EAE702221A7001222068FFF7C9FF2368A3
:101AD00015498B4219D0154A934216D0144A9342A5
:101AE00013D0144A934218D107219A6800200A4063
:101AF000062ACDD0012219680A431A60C8E70829CE
:101B000001D14032D5E74132D3E78022586C12022E
:101B100002435A648B42E4D1E6E7012219680020AF
:101B20000A431A60B4E7C046002C0140004401405B
:101B3000004801400004004010B5FFF79FFF10BDB2
:101B400070B5040002223C34257803001000012DFA
:101B500019D01D0070263D352A701B6858689A6898
:101B6000B0430E68304358600748834202D00748AC
:101B7000834204D18020496882430A439A6001234A
:101B800000202B70207070BD002C0140000400402C
:101B900010B504003C34237802000220012B1CD035
:101BA000C8680E4B12680340886803430C48034022
:101BB000486803430B480340086803430A4803404E
:101BC00008690343094803404869C9690343084851
:101BD000034000200B435364207010BDFFFCFFFF47
:101BE000FFFBFFFFFFF7FFFFFFEFFFFFFFDFFFFF41
:101BF000FFBFFFFF7047704730B5EFF3108401223D
:101C000082F310880168124D0B682B400B6084F33F
:101C10001088EFF3108482F3108801688B68934377
:101C20008B6084F31088036E93420AD1EFF3108126
:101C300083F31088102402681368A343136081F3B0
:101C400010882022031DDA6700230366836630BDF7
:101C5000DFFEFFFF70B504002569A26801682A4312
:101C60006569C3692A430868394D1A43284002430D
:101C70000A604A683748256A0240E06802434A60C1
:101C8000A26988682A43344D284002438A600321B0
:101C9000324A126B0A408021013A0902022A4BD8CB
:101CA0002F48805C8B4224D1082816D8FEF736FADC
:101CB00046150815051515150900FFF789F83FE0C9
:101CC000284B5800636861685B08C018FEF730FA5B
:101CD0000200254B103A9A4201D9012033E00F232C
:101CE000020000079A4393B2400F22681843D06065
:101CF00028E00828F1D8FEF707FA15F01DF01AF0D1
:101D0000F0F0050080200002636861685B08181825
:101D1000FEF70EFA0200144B103A9A42DDD82368FF
:101D2000D8600FE0FFF7FEF800280BD0ECE7FFF7D4
:101D30004FF8F9E70B48E7E78B42F3D1FFF7F2F8EA
:101D4000031EBED100200023A366E36670BDC0461B
:101D5000F369FFFFFFCFFFFFFFF4FFFF001002401A
:101D6000002A000800127A00EFFF0000436A30B535
:101D70001A0706D50168284C4A682240446B224362
:101D80004A60DA0706D50168244C4A682240846A12
:101D900022434A609A0706D50168214C4A682240CE
:101DA000C46A22434A605A0706D501681D4C4A6836
:101DB0002240046B22434A60DA0606D501681A4CB9
:101DC0008A682240846B22438A609A0606D501689D
:101DD000164C8A682240C46B22438A605A0610D58A
:101DE0000168134D4A68046C2A4022434A608022ED
:101DF0005203944205D14A680E4C2240446C22435F
:101E00004A601B0606D502680B4953680B40816C7B
:101E10000B43536030BDC046FF7FFFFFFFFFFDFF58
:101E2000FFFFFEFFFFFFFBFFFFEFFFFFFFDFFFFFF7
:101E3000FFFFEFFFFFFF9FFFFFFFF7FFF7B5040076
:101E40000D00170000932268D3692B405B1B594299
:101E50004B41BB4201D0002026E0089B0133F3D068
:101E6000FEF7A4FC009BC01A089B98422DD8002BBB
:101E70002BD0042123681A680A42E4D02A003C319E
:101E8000403A8A43DFD0DA690826110031400191D7
:101E900032420AD020001E62FFF7AEFEA319DE67B1
:101EA0000023012078342370FEBD8022D9691201FD
:101EB0001142C8D01A622000FFF79EFE23002022A4
:101EC0000833DA67019B783423700320ECE7F0B520
:101ED00085B00393C36F04000D0016000220202B71
:101EE00039D10138002936D0002A34D08023A268A5
:101EF0005B019A4204D12369002B01D101422AD10E
:101F0000230000220833DA672123E367FEF74EFC43
:101F1000230050331E8002331E8002938023A26868
:101F2000070000265B019A4204D12369B34201D124
:101F30002E001D00230052331B889AB2002B0CD1B7
:101F4000039B4021009320003B00FFF777FF2023F5
:101F5000E36700280DD105B0F0BD039B002200937C
:101F600080213B002000FFF769FF002803D02023D9
:101F7000E3670320EFE72268002D0BD13388023698
:101F8000DB05DB0D1385029B029A1B88013B9BB28C
:101F90001380CFE72B7801351385F4E70300F7B5FD
:101FA000002504000833DD67FEF700FC26002368E7
:101FB00007001B6878361B071BD58021264B2A009B
:101FC0000093890303002000FFF738FFA84210D0D8
:101FD000EFF31081012383F31088802022681368B7
:101FE0008343136081F310882023E3673570032057
:101FF000FEBD250008CD1B685B0725D58021164B4B
:102000000022009320003B00C903FFF717FF0028C0
:102010001AD0EFF31080012282F3108821680F4F4D
:102020000B683B400B6080F31088EFF3108082F365
:10203000108821688B6893438B6080F3108820237D
:10204000EB6700233370D2E700202023E367EB67C0
:10205000206660663070CBE7FFFFFF01DFFEFFFF09
:1020600010B5041E01D1012010BDC36F002B04D197
:1020700002007832137000F0C1FA24230121226893
:10208000E36713688B431360636A002B02D0200060
:10209000FFF76CFE2000FFF7DDFD0128E3D0236889
:1020A00007495A6820000A4008215A609A688A4302
:1020B0009A60012219680A431A60FFF76FFFD3E79D
:1020C000FFF7FFFFF0B589B01422002103A800F04C
:1020D00065FB8020224BC00359699026014359615A
:1020E0005A690024024080200092009A59698002B7
:1020F00001435961802101255A69C90202400192B8
:10210000019A5A69F6050A435A615B69154F0B40FB
:102110003000029300223021029BFEF753FC012283
:1021200038000221FEF74EFC300003A90395049409
:102130000594FEF791FB3023300003A90393049527
:1021400005940694FEF788FB0223380003A9039345
:10215000049505940694FEF77FFB09B0F0BDC046D8
:10216000001002400004004830B595B0282200213C
:102170000AA800F013FB10220021684600F00EFBB5
:102180001022002104A800F009FB80235B021193B8
:102190008023012402255B0308A808940994109564
:1021A0001293FEF715FC002801D072B6FEE7072354
:1021B000029003902100684600930195FEF72EFEE1
:1021C000002801D072B6FEE7069004A80494FEF73A
:1021D000B9FE002801D072B6FEE715B030BD000090
:1021E00010B5FEF7C7FAFA24FFF7BEFFFFF76AFF44
:1021F00000F058F900F05CF800F0E4F900F08CF819
:10220000FEF75CFAFEF702FAFEF7E4F90020FEF7AB
:1022100079FAA4002300042202490348FFF757FE7D
:10222000F8E7C046080000200C06002072B6FEE762
:1022300001200A4B82B099690143996180219A6912
:10224000490502400092009ADA690A43DA61DB69C3
:102250000B400193019B02B07047C0460010024042
:10226000FEE7FEE77047704710B5FEF793FA10BD22
:1022700010B50248FFF72BF810BDC046340500200A
:1022800010B5FFF7F5FF10BD10B50248FFF71FF8B6
:1022900010BDC0467C050020034B10B5834201D120
:1022A000FEF7DCF910BDC0467C0500207047000039
:1022B00030B58DB02022002104A800F06FFA002173
:1022C000082201A800F06AFA104C114B0025236087
:1022D000104B2000E360012303A96560A560256120
:1022E000A561039305930993FFF74CF9A84201D028
:1022F000FFF79CFF200001A901950295FFF720FC44
:10230000002801D0FFF792FF0DB030BDC4050020BA
:1023100000040040FFFF000009480A4B10B50360AD
:102320002F2343600023084A8360C2600361436136
:102330008361FFF7AFF8002801D0FFF777FF10BDEA
:102340007C050020004801404FC3000010B5040088
:1023500088B01422002103A800F020FA2368234A41
:1023600093422FD18020224B00019969014399614A
:1023700080219A69890202400092009A5A6990204D
:102380000A435A615B69C0050B400193019B80239E
:10239000DB000393022303A904930793FEF75CFA7F
:1023A00000220D201100FEF707FA0D20FEF72EFA8D
:1023B00000220E201100FEF7FFF90E20FEF726FA8C
:1023C00008B010BD0B4A9342FAD18020084AC002DF
:1023D00091690143916193690022034002931620A1
:1023E0001100029BFEF7E8F91620E7E7002C0140F8
:1023F000001002400048014010B5040088B01422CB
:10240000002103A800F0CAF9104B22689A421BD1A0
:10241000022280200E4B8002D9691143D961D9690B
:102420001140019101995969014359615B6903A9FF
:10243000034002939020029BC023C0050393BF3B3F
:1024400004920793FEF708FA08B010BD000400409C
:102450000010024010B5040086B01422002101A82B
:1024600000F09CF90D4B22689A4215D180200C4A4D
:102470008002516901435161536901A903400093EE
:10248000009B802390209B000193FF3BFF3BC005F6
:1024900002930593FEF7E0F906B010BD002C014051
:1024A0000010024030B59BB01022002103A800F0BC
:1024B00075F90822002101A800F070F91C22002102
:1024C0000BA800F06BF91022002107A800F066F9B4
:1024D0002022002112A800F061F9374C374B384A0E
:1024E00023602F23636000232000A360E260236148
:1024F0006361A361FEF7CEFF002801D0FFF796FECF
:10250000802320005B0103A90393FFF703FA00284F
:1025100001D0FFF78BFE2000FEF7E4FF002801D07A
:10252000FFF784FE2000FFF705F8002801D0FFF731
:102530007DFE0023200001A901930293FFF700FB19
:10254000002801D0FFF772FE00256023042220003E
:102550000BA90B930C950D950E950F951095119554
:10256000FFF7A2F8A84201D0FFF760FE012308227E
:10257000200007A90795089309950A95FFF716F912
:10258000002801D0FFF752FE802200239201200094
:1025900012A91293139314931593169317921993E8
:1025A000FFF7F6FA002801D0FFF740FE2000FFF702
:1025B00051FF1BB030BDC04634050020002C014047
:1025C000E70300000B480C4B10B5036096231B0279
:1025D0000C224360002342618360C3600361836116
:1025E000C36103624362FFF73BFD002801D0FFF7A0
:1025F0001DFE10BD0C0600200038014010B504007F
:1026000088B01422002103A800F0C8F8124B2268F9
:102610009A421FD18020114BC001996901439961F1
:1026200080219A69890202400192019A5A69902098
:102630000A435A615B69C0050B400293029B0C235D
:1026400003930A3B04930133069303A9023B0793C8
:10265000FEF702F908B010BD00380140001002403A
:102660000D488546FFF722FE0C480D490D4A002310
:1026700002E0D458C4500433C4188C42F9D30A4A37
:102680000A4C002301E013600432A242FBD300F0A5
:1026900011F8FFF7A5FDFEE7001000200000002064
:1026A000440400202C2A000844040020980600203E
:1026B000FEE7000070B50C4D0C4E761BB61005D031
:1026C000002408CD01349847A642FAD100F03CF925
:1026D000074D084E761BB61005D0002408CD0134F6
:1026E0009847A642FAD170BD202A0008202A000887
:1026F000202A0008282A0008F0B5C64600B50F2A8F
:1027000041D903270D003E0005430C0003002E4075
:102710002F423DD11500103D2D09A8462D01AC4694
:10272000844427681D001F6067685F60A7689F601A
:10273000E7681034DF6010336545F2D145460F235A
:102740000C2401352D01491913404519144222D09A
:102750008C59AC5104369C1B032CF9D8043B9B08C4
:1027600001339B00ED18C91803231A40561E002A96
:1027700006D00023CC5C1A00EC5401339642F9D108
:1027800080BCB846F0BD0500561E002AF1D1F7E71F
:102790000500561EEDE71A00F6E7C046F0B5050045
:1027A000830749D0541E002A45D003000326CAB22D
:1027B00002E00135013C3ED301332A703342F8D1A7
:1027C000032C30D9FF220A40150215432A04154371
:1027D0000F2C34D92700103F3F093E01B4461E009C
:1027E0001A0010366644156055609560D560103249
:1027F000B242F8D101373F01DB190F270C222740E5
:1028000022403C00002A0ED03E1FB608B400A44669
:102810001A001C1D644420C2A242FCD103240136CC
:10282000B6009B193C40002C05D0C9B21C19197088
:1028300001339C42FBD1F0BD03001400C0E7270028
:10284000E2E7C046034B10B5002B02D0024800F06F
:1028500005F810BD000000006D28000810B501004B
:1028600000230022002000F019F810BD70B5074DBC
:10287000074C641BA41005D0013CA300EB589847FB
:10288000002CF9D100F066F870BDC046282A000877
:102890002C2A00087047C0467047C046F0B5D6469F
:1028A0004F464646C0B5264F82B00600386892466D
:1028B00098468946FFF7EEFF224B1B680193A4233D
:1028C000019A5B00D558002D2ED06C681F2C30DC8F
:1028D000002E0FD1631C6B604B460234A400386895
:1028E0006351FFF7D9FF002002B0E0BCBA46B14601
:1028F000A846F0BD882251462800A300EB18995045
:10290000873AA2408930FF30016811430160842179
:10291000404649005850022EDCD12B008D33FF3346
:1029200019680A431A60D5E715004D35FF35D550B3
:10293000CBE73868FFF7B0FF01204042D4E7C0463C
:10294000400400201C2A0008F8B5C046F8BC08BCAA
:102950009E467047F8B5C046F8BC08BC9E46704716
:102960001C040008A803000804030008BC020008B7
:1029700004030008E403000804030008BC02000884
:10298000A8030008A8030008E4030008BC0200082C
:10299000C2020008C2020008C2020008F2030008D6
:1029A000A8030008A803000804030008B8020008F0
:1029B00004030008E403000804030008B802000848
:1029C000A8030008A8030008E4030008B8020008F0
:1029D000C2020008C2020008C2020008EE0300089A
:1029E00002030405060708090A0B0C0D0E0F101050
:1029F0000102030405060708090A0B0C0D0E0F104F
:102A000004080200000000000000000102030406A8
:102A1000070809000000000102030400180000205C
:082A200045280008E900000848
:042A2800C1000008E1
:102A2C00010000000400000048656C6C6F20576FBB
:102A3C00726C640000127A00000000000403002095
:102A4C006C030020D40300200000000000000000F4
:102A5C00000000000000000000000000000000006A
:102A6C00000000000000000000000000000000005A
:102A7C00000000000000000000000000000000004A
:102A8C00000000000000000000000000000000003A
:102A9C00000000000000000000000000000000002A
:102AAC00000000000000000000000000000000001A
:102ABC00000000000000000000000000000000000A
:102ACC0000000000000000000000000000000000FA
:102ADC0000000000000000000000000000000000EA
:102AEC0001000000000000000E33CDAB34126DE687
:102AFC00ECDE05000B0000000000000000000000F0
:102B0C0000000000000000000000000000000000B9
:102B1C0000000000000000000000000000000000A9
:102B2C000000000000000000000000000000000099
:102B3C000000000000000000000000000000000089
:042E6C0094060020A8
:040000050800266168
:00000001FF
