:020000040800F2
:100000000010002041280008092400080B240008E3
:1000100000000000000000000000000000000000E0
:100020000000000000000000000000000D24000897
:1000300000000000000000000F2400081124000848
:10004000912800080000000091280008912800086D
:10005000912800089128000891280008912800089C
:10006000000000009128000891280008912800084D
:100070009128000819240008292400080000000025
:1000800091280008000000000000000091280008EE
:100090000000000091280008392400089128000879
:1000A00000000000912800080000000091280008CE
:1000B0000000000000000000000000000000000040
:1000C00010B5064C2378002B07D1054B002B02D02E
:1000D000044800E000BF0123237010BD3C04002051
:1000E00000000000282B0008044B10B5002B03D0A3
:1000F0000349044800E000BF10BDC04600000000F6
:1001000040040020282B0008002243088B4274D3AF
:1001100003098B425FD3030A8B4244D3030B8B4208
:1001200028D3030C8B420DD3FF22090212BA030C11
:100130008B4202D31212090265D0030B8B4219D3F2
:1001400000E0090AC30B8B4201D3CB03C01A524112
:10015000830B8B4201D38B03C01A5241430B8B425A
:1001600001D34B03C01A5241030B8B4201D30B0343
:10017000C01A5241C30A8B4201D3CB02C01A52416A
:10018000830A8B4201D38B02C01A5241430A8B422D
:1001900001D34B02C01A5241030A8B4201D30B0216
:1001A000C01A5241CDD2C3098B4201D3CB01C01A30
:1001B000524183098B4201D38B01C01A524143093A
:1001C0008B4201D34B01C01A524103098B4201D328
:1001D0000B01C01A5241C3088B4201D3CB00C01A95
:1001E000524183088B4201D38B00C01A524143080D
:1001F0008B4201D34B00C01A5241411A00D2014632
:10020000524110467047FFE701B5002000F006F8A4
:1002100002BDC0460029F7D076E770477047C04658
:10022000F0B54F464646D6464502C0B547000C1CC1
:100230006D0A3F0EC60F002F00D170E0FF2F00D1D6
:1002400075E0EB008025ED041D43002399469A4696
:100250007F3F6002430A984663001B0EE40F002BA9
:100260004ED0FF2B46D04246D0008022D20402431B
:10027000904600227F3B3100FF1A4B466140C9B2D5
:1002800013430F2B00D9B5E06E489B00C3589F461F
:10029000002398462600454692465346022B00D13D
:1002A00089E0032B00D19EE0012B18D03B007F3367
:1002B000002B69DD6A0704D00F222A40042A00D0EF
:1002C00004352A0103D5604B1D403B008033FE2BD3
:1002D00000DD70E0AD016D0AD8B202E00E00002032
:1002E0000025C0052843F6073043E0BCBA46B146B6
:1002F000A846F0BD4346002B3FD10222FF3F03E05A
:100300004346002B2DD1012231004B466140C9B23A
:1003100013430F2B34D84D489B00C3589F46002DE4
:1003200013D104239946033B00279A4691E7002DF9
:1003300005D108239946063BFF279A4689E70C23F7
:100340009946093BFF279A4683E7280000F010F9F9
:100350007627431F9D4000237F4299469A463F1AC5
:1003600077E7404600F004F94246431F9A4076235F
:100370005B4290461B1A00227DE7FF2303227AE7A7
:100380000E00FF200025ACE70120C01A1B28A6DCC8
:100390009E372A00BD40C2406B1E9D4115436B072E
:1003A00004D00F232B40042B00D004356B0144D51F
:1003B0000120002595E7FF20002592E780250026F3
:1003C000FF20ED038DE7002398468020C0030542FF
:1003D00009D04346034206D1454605436D02260037
:1003E000FF206D0A7DE78020C00305436D02FF20DA
:1003F0006D0A76E742466B015001834219D21B22F7
:100400000025013F01261C006D005B00002C01DB74
:10041000984201D81B1A3543013A002AF3D15A1EDB
:1004200093411D433B007F330E00002B00DD41E76D
:10043000AAE71A2201251B1AE4E7AD0100206D0A84
:100440004FE7C046402B0008FFFFFFF7802B000856
:10045000F8B5002813D0C317C6185E40C40F30008B
:1004600000F086F89E2305001B1A962B0FDC082847
:1004700001DD083DAE407602760AD8B202E00024E3
:1004800000200026C0053043E4072043F8BD992B27
:100490000CDD05223100121AD1400A0001003000A3
:1004A0001B318840411E884102431600052D12DC95
:1004B00031000D4F3940720709D00F203040042819
:1004C00005D004314A0102D59F2339405B1B8901C5
:1004D0004E0AD8B2D6E76A1F96403100024F394023
:1004E0007207F4D0E9E7C046FFFFFFFB70B5051EB9
:1004F0000ED000F03DF89E2304001B1A962B0CDC56
:10050000082801DD083CA5406D026D0AD8B201E063
:1005100000200025C005284370BD992B09DD02008D
:1005200029001B3291404A1E91410522121AD540E2
:100530000D43052C12DC29000C4E31406A0709D00E
:100540000F202840042805D004314A0102D59F23FA
:1005500031401B1B89014D0AD8B2DBE7621F954071
:100560002900024E31406A07F4D0E9E7FFFFFFFBA4
:100570001C2101231B04984201D3000C10391B0AD3
:10058000984201D3000A08391B09984201D3000997
:10059000043902A2105C40187047C04604030202EE
:1005A00001010101000000000000000010B50A4B2D
:1005B00048229A5C4A21585C5043084CFFF748FF98
:1005C000206000236360A3602361E360FE22920544
:1005D0006261A361E36110BD8C0400205804002017
:1005E00010B50F4C48220F49200002F075F948233E
:1005F0001122E25401333332E2540B4B00221A70C1
:100600005A705A609A600022DA604A23A022E254AB
:100610003C21200001F034FB044800F0E1FE10BD55
:100620008C0400202C05002078040020BC0500204C
:10063000F8B5164F3A68116810230B40591E8B41CC
:10064000134C6370516A002565572B045D1B4D19CF
:100650006560A368E81AFFF7FBFE061C4923F85CF7
:10066000FFF744FF011C301CFFF7DAFD061CE060B9
:100670004A23F85CFFF73AFF011C301CFFF7D0FD5E
:100680002061A56000232370F8BDC0468C040020C3
:100690007804002070B59024E40500221021200089
:1006A00000F0A4F900222021200000F09FF9094D5C
:1006B000094C48222100280002F00EF94C23E26880
:1006C000EA540421200001F069FA236800229A63A9
:1006D00070BDC046D80400202C05002010B50028AD
:1006E00002D001280DD010BD9024E4050122102174
:1006F000200000F07BF900222021200000F076F994
:10070000F1E79024E40500221021200000F06EF9AA
:1007100001222021200000F069F9E4E710B504006F
:100720000F4B1978FA208000FFF7EEFC01000D4B0B
:100730001868FFF7E9FC00F077F800280DD1032CCA
:1007400001D901200AE0013000222100404200F0DE
:100750002FF8054B1C60002000E0012010BDC046B2
:1007600000000020080000200400002010B5064A08
:10077000136810210B4313600320FFF7CFFF01F034
:100780002BFE002010BDC04600200240034A116825
:10079000034B1B785B1813607047C0462805002088
:1007A00000000020014B18687047C0462805002053
:1007B00070B5002811DB8308134EC0339B009D5990
:1007C00003242040C000FF2214008440A543890177
:1007D0000A4082402A439A5170BD0F230340083BD0
:1007E0009B0806339B00094A944663445C680322D5
:1007F0001040C000FC3215008540AC4389010A401E
:10080000824022435A60E7E700E100E000ED00E0AB
:10081000002805DB1F2318401E3B8340014A13605C
:100820007047C04600E100E0013880235B04984235
:100830000FD2094A50600948036A1B021B0AC021F3
:1008400009060B4303620023936007331360002003
:1008500070470120FCE7C04610E000E000ED00E03A
:10086000F0B583B0002357E084685F000326BE40E4
:10087000B4432600CC68BC4034438460446894434D
:100880004A681609012232409A402243426053E0EE
:10089000DC080834A400265805321A4092000F27BD
:1008A0009740BE430F6997403A003243225057E0C9
:1008B000032600E00026A64034003C4302329200AA
:1008C000444E9451444A9468EA432600AE434F682C
:1008D000FF0201D52C4326003F4CA660E4682600A9
:1008E00016404F68BF0201D52C4326003A4CE66003
:1008F0006468260016404F68BF0301D52C432600CC
:10090000354C6660246822404E68F60301D52A0003
:100910002243314C226001330C682200DA4057D068
:1009200001229A40250015401442F4D003244E6859
:100930003440013C012C97D903224C682240032A01
:1009400009D0C2685E000324B440A24314008A6840
:10095000B2402243C26003224C682240022A97D050
:1009600004685E0003221700B740BC434F683A405A
:10097000B24022430260C02292024C681442CAD0A4
:10098000164CA66901221643A661A4692240019271
:10099000019A9A08941CA4000E4EA75903241C40E7
:1009A000A4000F26A640B7439026F605B04281D09A
:1009B0000B4EB04208D00B4EB04207D00A4EB042A8
:1009C00000D175E7052676E7012674E7022672E76F
:1009D00003B0F0BD000001400004014000100240DF
:1009E0000004004800080048000C0048002A01D01C
:1009F000816170478162FCE770B582B0041E00D14E
:100A00002EE20368DB0726D5AE4B5A680C23134051
:100A1000042B18D0AB4B5A680C231340082B0ED074
:100A20006368012B3CD0002B51D1A64B1A68A64914
:100A30000A401A601A68A5490A401A6036E0A14BBC
:100A40005B68DB03ECD59F4B1B689B0303D5636896
:100A5000002B00D107E223689B0772D5994B5B6896
:100A60000C221A425DD0974B5A680C231340082B76
:100A700053D0E368002B00D185E0924A136801212E
:100A80000B431360FFF78EFE05008E4B1B689B0720
:100A900070D4FFF787FE401B0228F6D90320E0E15F
:100AA000884A116880235B020B4313606368002B44
:100AB00025D0FFF777FE0500824B1B689B03CAD445
:100AC000FFF770FE401B6428F6D90320C9E1052B0F
:100AD00009D07C4B1A687C490A401A601A687B4925
:100AE0000A401A60E2E7774B19688022D2020A4373
:100AF0001A601968802252020A431A60D6E7FFF78B
:100B000051FE05006F4B1B689B03A4D5FFF74AFEFF
:100B1000401B6428F6D90320A3E16A4B5B68DB0322
:100B2000A7D4684B1B689B0703D5E368012B00D053
:100B30009BE164490B68F82293432269D200134376
:100B40000B6023681B0744D5E369002B2ED05D4A58
:100B5000536A01210B435362FFF724FE0500594BF2
:100B60005B6A9B0735D4FFF71DFE401B0228F6D9B0
:100B7000032076E153490B68F82293432269D2009F
:100B800013430B60DDE74F4A136801218B43136069
:100B9000FFF708FE05004B4B1B689B07D1D5FFF7FD
:100BA00001FE401B0228F6D903205AE1454A536A48
:100BB00001218B435362FFF7F5FD0500414B5B6A52
:100BC0009B0706D5FFF7EEFD401B0228F6D9032050
:100BD00047E123685B0700D480E03A4BDB69DB0028
:100BE0001DD4384AD169802040050143D161D369C1
:100BF00003400193019B0125354B1B68DB0510D594
:100C0000A368012B21D0002B36D12E4B1A6A01216B
:100C10008A431A621A6A03318A431A621AE000256B
:100C2000EAE72B4A116880235B000B431360FFF750
:100C3000B9FD0600264B1B68DB05E1D4FFF7B2FDCA
:100C4000801B6428F6D903200BE11E4A136A012198
:100C50000B431362A368002B24D0FFF7A3FD06000B
:100C6000184B1B6A9B0737D4FFF79CFD801B194B61
:100C70009842F5D90320F4E0052B09D0114B1A6AEC
:100C800001218A431A621A6A03318A431A62E1E730
:100C90000C4B1A6A04210A431A621A6A03390A437E
:100CA0001A62D7E7FFF77EFD0600064B1B6A9B071B
:100CB00012D5FFF777FD801B064B9842F5D903202C
:100CC000CFE0C04600100240FFFFFEFFFFFFFBFF2A
:100CD0000070004088130000012D33D02368DB062C
:100CE00010D56369012B33D0053351D1654A536B5D
:100CF00004218B435363536BF4318B43A169C900C7
:100D00000B435363236A002B00D1B0E05D4A516866
:100D10000C220A40082A00D18AE0022B4FD0594AFF
:100D2000136859490B401360FFF73CFD0400554B15
:100D30001B689B017AD5FFF735FD001B0228F6D909
:100D400003208EE04F4AD36950490B40D361C5E779
:100D50004C4B5A6B04210A435A635A6B03390A43BA
:100D60005A63FFF71FFD0500464B5B6B9B0706D4DC
:100D7000FFF718FD401B0228F6D9032071E0414916
:100D80004B6BF8229343A269D20013434B63B9E73C
:100D90003C4B5A6B04210A435A635A6B03398A430A
:100DA0005A63FFF7FFFC0500364B5B6B9B07A9D529
:100DB000FFF7F8FC401B0228F6D9032051E0314A26
:100DC000136831490B401360FFF7ECFC05002D4B15
:100DD0001B689B0106D5FFF7E5FC401B0228F6D9EE
:100DE00003203EE0274BDA6A0F218A43E16A0A4377
:100DF000DA625A6826490A40A16A606A01430A43D6
:100E00005A601968802252040A431A60FFF7CAFC2C
:100E100004001C4B1B689B0106D4FFF7C3FC001B9E
:100E20000228F6D903201CE000201AE0002018E078
:100E3000012B1ED0134B5A68D96A80235B021340E2
:100E4000606A834217D10F230B40E16A8B4214D1B1
:100E5000F0239B031A40A36A9A4210D1002000E0BD
:100E6000012002B070BD0120FBE70120F9E700205E
:100E7000F7E70120F5E70120F3E70120F1E7012082
:100E8000EFE7C04600100240FFFFFFFEFFFFFFEF4D
:100E9000FFFFC2FF10B5104B5A680C231340082BFC
:100EA00001D00E4810BD910C073319400C48445C2A
:100EB0000949C96A0B400B49C95CD30304D50748EB
:100EC000FFF722F96043EDE763011B1B9801C01A8D
:100ED000C00000190002E5E70010024000127A008D
:100EE000C02B0008D02B000870B504000D000028AE
:100EF00000D17EE0434B1A68012313408B420AD293
:100F000040490B68012293432B430B600B681A4046
:100F1000AA4200D06FE023689A070ED55B0705D57B
:100F2000394A5168E023DB000B435360364A53686B
:100F3000F0218B43A1680B4353602368DB072DD559
:100F40006368012B1ED0022B22D02F4A1268920711
:100F500053D52D494A680320824313434B60FFF762
:100F600021FC0600284B5B680C221A4063689B003A
:100F70009A4213D0FFF716FC801B244B9842F1D9FC
:100F8000032035E0204A12689203E2D401202FE0CA
:100F90001D4A12689201DCD4012029E0194B1A681D
:100FA00001231340AB4209D916490B680122934330
:100FB0002B430B600B681A40AA4220D123685B07C1
:100FC00006D5114A536812490B40E1680B43536040
:100FD000FFF760FF0C4B5A6812090F2313400D4AAC
:100FE000D35CD8400C4B18600320FFF797FB002020
:100FF00070BD0120FCE70120FAE70120F8E701209D
:10100000F6E7C046002002400010024088130000AE
:10101000FFF8FFFFE02B000808000020014B1868D4
:101020007047C0460800002010B5FFF7F7FF044BDB
:101030005A68120A07231340024AD35CD84010BDF5
:1010400000100240F02B000870B582B00400036865
:10105000DB0337D53D4BDB69DB0049D43B4AD16923
:10106000802040050143D161D36903400193019B76
:101070000125374B1B68DB053CD5344B1A6AC0236E
:101080009B00110019401A4213D0626813408B4232
:101090000FD02E4B186A2F4A02401E6A8021490247
:1010A00031431962196A2C4E314019621A62C30722
:1010B00034D4264A136A27490B4061680B431362F4
:1010C000012D3AD02368DB0706D5204A136B032194
:1010D0008B43A1680B43136323689B0632D51B4ADD
:1010E000136B10218B43E1680B43136300202AE04C
:1010F0000025BEE7164A116880235B000B4313608E
:10110000FFF750FB0600124B1B68DB05B5D4FFF759
:1011100049FB801B6428F6D9032014E0FFF742FB4B
:1011200006000A4B1B6A9B07C3D4FFF73BFB801BDF
:101130000A4B9842F5D9032005E0D36908490B40D2
:10114000D361BFE7002002B070BDC046001002406E
:1011500000700040FFFCFFFFFFFFFEFF8813000050
:10116000FFFFFFEF30B5036A026A0124A243026267
:10117000426884697325AC430D682C430225AB4358
:101180008D682B43114DA84205D0114DA84202D0C5
:10119000104DA84205D10825AB43CD682B4304254B
:1011A000AB430A4DA84205D0094DA84202D0094DD3
:1011B000A84205D1084D2A404D692A438D692A432A
:1011C000426084614A684263036230BD002C014082
:1011D0000044014000480140FFFCFFFF70B5036A76
:1011E000026A184C224002624468C2697325AA430D
:1011F0000E681643144A13408A6812021343134AB6
:10120000904216D0114A904205D0114A904202D025
:10121000104A904207D1104A22404C6924011443DD
:101220008A6915012C434460C6614A68C26303623F
:1012300070BD0A4A1A40CB681B021343084A134088
:10124000E0E7C046FFFEFFFFFFFDFFFF002C01406F
:101250000044014000480140FFCFFFFFFFF7FFFFC0
:10126000FFFBFFFF30B5036A026A114C22400262A5
:101270004568C2690F4C22400C68240222430E4C80
:101280001C408B681B0323430C4CA04205D00C4C24
:10129000A04202D00B4CA04204D10B4C25404C691B
:1012A000A40125434560C2614A680264036230BDFF
:1012B000FFEFFFFFFF8CFFFFFFDFFFFF002C014070
:1012C0000044014000480140FFBFFFFF30B5036A02
:1012D000046A0125AC4304628469EF35AC43120112
:1012E00022430A24A3430B438261036230BD000002
:1012F00070B5046A056A1026B54305628569084E13
:10130000354012022A43074D2A401B071B0C13438A
:10131000A022944309010A4022438361026270BD06
:10132000FFFCFFFFFF0FFFFF30B5036A046A1025C3
:10133000AC4304628469054D2C4012032243A0246F
:10134000A343090119438261016230BDFF0FFFFF12
:1013500070B5056A066A0B4C26400662C46903260E
:10136000B4431443F02294431A01FF2313401C4357
:10137000054B1D400902A0231B0119402943C461EC
:10138000016270BDFFFEFFFFFFF5FFFF70B5046A4D
:10139000056A0B4E35400562C5690A4E354012029A
:1013A0002A43094D2A401B071B0C1343074A1440CC
:1013B0000903A022120211402143C361016270BDE2
:1013C000FFEFFFFFFFFCFFFFFF0FFFFFFF5FFFFFD0
:1013D0008368702293430B4307210B43836070475C
:1013E0003D23C35C012B1FD13C330222C25402684F
:1013F000D36801210B43D36003680D4A934208D0A0
:101400000C4A934205D01A6801210A431A60002051
:101410000BE0996807220A40062A07D01A680121C2
:101420000A431A60002000E0012070470020FCE71A
:10143000002C01400004004070477047704770471F
:101440007047704770B504000368DE681D69AA071D
:101450000ED5B2070CD5032252421A61012303773D
:1014600003689B699B0751D0FFF7E9FF00232377AF
:101470006B0712D5730710D52368052252421A61F3
:101480000223237723689A69C0239B001A4243D022
:101490002000FFF7D4FF002323772B0710D5330755
:1014A0000ED52368092252421A6104232377236848
:1014B000DB699B0737D02000FFF7C1FF00232377AC
:1014C000EB0612D5F30610D52368112252421A6199
:1014D000082323772368DA69C0239B001A4229D0A6
:1014E0002000FFF7ACFF00232377EB0701D5F307BC
:1014F00027D42B0601D533062BD46B0601D57306F2
:101500002FD4AB0601D5B30633D470BDFFF796FFD9
:101510002000FFF795FFA9E72000FFF78FFF2000CD
:10152000FFF78EFFB7E72000FFF788FF2000FFF7E7
:1015300087FFC3E72000FFF781FF2000FFF780FF50
:10154000D1E72368022252421A61200000F07CFF9A
:10155000CFE72368812252421A61200000F059FC33
:10156000CBE72368412252421A612000FFF769FF4E
:10157000C7E72368212252421A61200000F048FC8C
:10158000C3E7000003681D4A904202D01C4A904203
:1015900003D1702293434A681343184A90420BD0F8
:1015A000174A904208D0174A904205D0164A9042F6
:1015B00002D0164A904203D1154A1340CA68134319
:1015C000802293434A69134303608B68C3620B68AC
:1015D00083620A4B984205D00B4B984202D00B4BCA
:1015E000984201D10B6903630123436102691342ED
:1015F00003D003690122934303617047002C01402B
:101600000004004000200040004401400048014028
:10161000FFFCFFFF70B5041E26D03D23C35C002BEA
:101620001CD03D2502236355210001C9FFF7AAFF05
:1016300001234622A354083AA3540132A354013291
:10164000A3540132A3540132A3540132A3540132F2
:10165000A3540132A3546355002070BD3C330022D3
:10166000C25400F04FFFDCE70120F6E770B5041E1E
:1016700026D03D23C35C002B1CD03D25022363559F
:10168000210001C9FFF77EFF01234622A354083A37
:10169000A3540132A3540132A3540132A3540132A2
:1016A000A3540132A3540132A3540132A35463550D
:1016B000002070BD3C330022C254FFF7BDFEDCE7C2
:1016C0000120F6E770B5041E26D03D23C35C002B35
:1016D0001CD03D2502236355210001C9FFF752FFAD
:1016E00001234622A354083AA3540132A3540132E1
:1016F000A3540132A3540132A3540132A354013242
:10170000A3540132A3546355002070BD3C33002222
:10171000C254FFF792FEDCE70120F6E7F0B5C646BB
:1017200000B504000D0000284DD03D23C35C002B04
:1017300043D03D260223A3552268936823490B40DA
:101740009360210001C9FFF71DFF216888688A693D
:101750000F6A2B68184380461D4B1340AA6912027A
:10176000A86802431A431B4B1A40EB691B02E86846
:1017700003431A432B691B01286A000303431343E5
:10178000AA2297436A686D692D012A433A4340466D
:10179000886021688B6123681A6201234622A35462
:1017A000083AA3540132A3540332A3540132A35480
:1017B000A355002080BCB846F0BD3C330022C25483
:1017C00000F0FAFEB5E70120F4E7C046F8BFFFFFDE
:1017D000FCFCFFFF0303FFFF30B5036A026A10241D
:1017E000A243026245688469164A14400A681202DC
:1017F0001443202293438A6812011343124A9042F1
:1018000016D0114A904205D0104A904202D0104A98
:10181000904207D10F4A2A404D69AD0015438A69AD
:1018200092001543456084614A688263036230BD5B
:10183000802293431A00CB681B0113434022934339
:10184000DFE7C046FF8CFFFF002C01400044014051
:1018500000480140FFF3FFFF70B504000D003C237A
:10186000C35C012B00D16AE03C230121C154082A4A
:1018700050D01CD8002A38D0042A16D1290000687C
:10188000FFF7AAFF2268916980231B010B43936134
:10189000226893692B490B40936121688B692A69FF
:1018A000120213438B6100201BE0080019E00C2A90
:1018B00016D129000068FFF7D5FC2268D169802382
:1018C0001B010B43D3612268D3691E490B40D361CE
:1018D0002168CB692A6912021343CB61002000E022
:1018E00001203C230022E25470BD29000068FFF76C
:1018F00039FC2268936908210B439361226893693C
:1019000004398B4393612268936929690B4393617E
:101910000020E6E729000068FFF760FC2268D36931
:1019200008210B43D3612268D36904398B43D36107
:101930002268D36929690B43D3610020D1E70220D3
:10194000D2E7C046FFFBFFFFF0B517001D00066A97
:10195000036A01229343036282690C4B984205D0CB
:101960000B4B984202D001231A4302E003239A430F
:101970003A43F0239A432D01FF242C402243E63BB7
:101980009E430B40334382610362F0BD002C014053
:101990000004004070B504000D003C23C35C012B23
:1019A00059D03C230121C154002A0AD0042A1AD05C
:1019B000082A2BD00C2A3BD001203C230022E254E1
:1019C00070BDEB686A6829680068FFF7BDFF226890
:1019D00093690C218B43936122689369A9680B4337
:1019E00093610020E9E7EB686A6829680068FFF7FF
:1019F0007FFC2268936919490B40936121688B69C8
:101A0000AA68120213438B610020D6E7EB686A686C
:101A100029680068FFF79CFC2268D3690C218B437E
:101A2000D3612268D369A9680B43D3610020C4E75E
:101A3000EB686A6829680068FFF7A8FC2268D36928
:101A400006490B40D3612168CB69AA68120213438F
:101A5000CB610020B1E70220B2E7C046FFF3FFFFF1
:101A600030B58468034D2C401B0213430B432343C2
:101A7000836030BDFF00FFFF10B504003C23C35C52
:101A8000012B00D178E03C230122C2540133013202
:101A9000C254026893683948034093600B68602B16
:101AA00050D02AD8402B58D00CD9502B23D1CA68FB
:101AB00049682068FFF70AFC50212068FFF788FC7E
:101AC000002005E0202B0ED009D9302B0BD00120AF
:101AD0003D230122E254013B0022E25410BD002BC1
:101AE00001D0102B05D119002068FFF771FC0020F0
:101AF000EEE70120ECE70120EAE780225201934261
:101B000036D08022920193420DD1CB684A68896811
:101B10002068FFF7A5FF226891688023DB010B4353
:101B200093600020D4E7702B24D1CB684A68896881
:101B30002068FFF795FF2268936877210B43936035
:101B40000020C5E7CA6849682068FFF7EDFB6021FF
:101B50002068FFF73DFC0020BAE7CA6849682068A2
:101B6000FFF7B4FB40212068FFF732FC0020AFE70D
:101B70000020ADE70120ABE70220AFE78800FFFFC0
:101B800010B51F23194001248C40036AA34303624C
:101B9000036A8A401343036210BD000010B50400BD
:101BA00000292CD13E23C35C013B5A1E9341DBB27A
:101BB000002B58D100293BD13E330222E2540122AE
:101BC0002068FFF7DDFF2368294A934205D0294AA0
:101BD000934202D0284A934204D1596C80221202C7
:101BE0000A435A642368224A934231D0234A9342DB
:101BF0002ED01A6801210A431A60002034E004291B
:101C000008D008290DD04123C35C013B5A1E9341E3
:101C1000DBB2CDE73F23C35C013B5A1E9341DBB2ED
:101C2000C6E74023C35C013B5A1E9341DBB2BFE7CA
:101C3000042905D0082907D041230222E254BEE737
:101C40003F230222E254BAE740230222E254B6E7DD
:101C5000996807220A40062A07D01A6801210A4318
:101C60001A60002000E0012010BD0020FCE7C04603
:101C7000002C0140004401400048014000040040A5
:101C800070B504003E23C05CC0B20133E35CDBB23C
:101C90004222A25CD2B24325655DEDB2002917D184
:101CA000012845D1012A44D102233D32A3540432F4
:101CB000A35400292AD0042934D00122002120680D
:101CC000FFF75EFF012204212068FFF759FF22E0A1
:101CD000042911D0012831D1012B2AD1012A2FD179
:101CE000012D2FD101333D32A3540132A3540332CD
:101CF000A3540132A354DCE7012B1BD1012D1BD1CE
:101D000001333F22A3540432A354D2E7012200211D
:101D10002068FFF735FF2268136801210B43136029
:101D2000002006E0012204212068FFF729FFF2E7E6
:101D3000012070BD0120FCE71800FAE70120F8E758
:101D40001800F6E71000F4E730B53C23C35C012B24
:101D500021D03C230122C25401330132C254036812
:101D60005A689C687025AA430D682A435A60036824
:101D70000A4A934202D00A4A934204D180229443F1
:101D80004A6814439C603D230122C254013B002257
:101D9000C254002030BD0220FCE7C046002C0140A8
:101DA0000004004010B53C23C35C012B21D03C2231
:101DB00001238354104BCC6823408C6823430F4C81
:101DC00023404C6823430E4C23400C6823430D4CA6
:101DD00023400C6923430C4C23404C6923430B4C98
:101DE0002340C9690B4301684B64002383540020DE
:101DF00010BD0220FCE7C046FFFCFFFFFFFBFFFF1A
:101E0000FFF7FFFFFFEFFFFFFFDFFFFFFFBFFFFF5A
:101E10007047704710B5EFF3108C012282F31088E1
:101E200001680B68124C23400B608CF31088EFF3B1
:101E3000108C82F3108801688B6893438B608CF35D
:101E40001088036E012B06D080232022C25000236D
:101E50000366836610BDEFF3108183F31088026878
:101E600013683234FF34A343136081F31088EBE727
:101E7000DFFEFFFF10B50400836802691343426967
:101E80001343C269134301680A6848480240134378
:101E90000B602268536846490B40E1680B4353606E
:101EA000226AA3691A4321688B684248034013439E
:101EB0008B60414B1A6B03231340022B27D022D88F
:101EC000002B26D0012B26D10333E0698022120299
:101ED000904224D0042B62D051D8002B59D0022B31
:101EE0004BD1364863685B0818186168FEF70CF937
:101EF0000200103A324B9A4256D823680004000C74
:101F0000D860002041E0032B07D1013BDDE7082327
:101F1000DBE70023D9E71023D7E71023D5E7042B0D
:101F200028D01DD8002B1FD0022B17D123484000EA
:101F300063685B08C0186168FEF7E6F80200103AB3
:101F40001F4B9A422ED882B20F239A434008083B77
:101F5000184010432368D860002016E0012014E0E8
:101F6000082BE4D0012010E0FFF75EF80028DED156
:101F700000200AE0FEF78EFFF8E7012005E0082BBD
:101F800002D180200002ADE701200023A366E366B2
:101F900010BDFFF749F80028A4D10020F5E7FEF7AF
:101FA00079FFF8E70120F0E70120EEE7F369FFFF92
:101FB000FFCFFFFFFFF4FFFF0010024000127A0086
:101FC000EFFF0000436A1B0706D5026853682C49DF
:101FD0000B40416B0B435360436ADB0706D5026835
:101FE000536828490B40816A0B435360436A9B073F
:101FF00006D50268536824490B40C16A0B435360FD
:10200000436A5B0706D50268536820490B40016BA1
:102010000B435360436ADB0606D5026893681C498C
:102020000B40816B0B439360436A9B0606D50268A5
:10203000936818490B40C16B0B439360436A5B067E
:102040000BD50268536814490B40016C0B43536075
:1020500080235B03026C9A420AD0436A1B0606D5B2
:10206000026853680D490B40816C0B435360704705
:10207000026853680A490B40416C0B435360ECE71C
:10208000FF7FFFFFFFFFFDFFFFFFFEFFFFFFFBFFE7
:10209000FFEFFFFFFFDFFFFFFFFFEFFFFFFFF7FF98
:1020A000FFFF9FFFF8B5CE46474680B506000D00FE
:1020B00017009946089B98463368DC692C40641BDE
:1020C00063425C41BC4233D143460133F4D0FEF756
:1020D00069FB4B46C01A40452FD84346002B2ED0F3
:1020E00033681A685207E7D5802DE5D0402DE3D03C
:1020F000DA69120710D4DA691205DDD580221201DF
:102100001A623000FFF786FE84232022F2500C3B37
:102110000022F25403200CE008241C623000FFF778
:1021200079FE8423F4500C3B0022F254012000E09D
:102130000020C0BCB946B046F8BD0320F9E7032033
:10214000F7E7000030B583B0040084230022C250BA
:10215000FEF728FB05002268126813070FD42368D6
:102160001B685B0729D42023E3678022A350002348
:1021700023666366083AA354002003B030BD802173
:10218000224B00930300002289032000FFF78AFFFF
:102190000028E4D0EFF31081012383F31088226834
:1021A000136880208343136081F310882023E36742
:1021B00058330022E2547D38DFE78021134B00932F
:1021C0002B000022C9032000FFF76CFF0028CAD0B3
:1021D000EFF31080012282F3108821680B680C4D08
:1021E0002B400B6080F31088EFF3108082F310888F
:1021F00021688B6893438B6080F3108880231F32A3
:10220000E250083B0022E2540320B6E7FFFFFF0143
:10221000DFFEFFFF10B5041E2ED0C36F002B21D0B0
:102220002423E3672268136801218B431360636AE8
:10223000002B1DD12000FFF71DFE012811D02268C0
:1022400053680E490B4053602268936808218B4302
:1022500093602268136807390B4313602000FFF76F
:1022600071FF10BD78330022C25400F0B5FAD7E7F1
:102270002000FFF7A7FEDDE70120F2E7FFF7FFFFF1
:10228000F0B589B01422002103A800F077FB234B9E
:1022900059698020C003014359615A690240009284
:1022A000009A596980208002014359615A690240AD
:1022B0000192019A5A698021C9020A435A615B69F5
:1022C0000B400293029B9026F6050022302130003D
:1022D000FEF78CFB124F012202213800FEF786FB2D
:1022E0000125039500240494059403A93000FEF70A
:1022F000B7FA3023039304950594069403A930009C
:10230000FEF7AEFA0223039304950594069403A9FD
:102310003800FEF7A5FA09B0F0BDC0460010024033
:102320000004004872B6FEE700B595B030220021E7
:1023300008A800F023FB1022002104A800F01EFBD7
:1023400010220021684600F019FB0123089309932D
:102350000133109380235B02119380235B0312935C
:1023600008A8FEF749FB002817D107230493053B73
:102370000593002306930793012104A8FEF7B4FDFB
:1023800000280CD101230093002302936846FEF736
:102390005BFE002805D115B000BDFFF7C3FFFFF7B6
:1023A000C1FFFFF7BFFF10B5FEF7E0F9FFF7BCFF75
:1023B000FFF766FF00F05AF900F052F800F0EEF96E
:1023C00000F084F8FEF766F9FEF70AF9FEF7EEF87A
:1023D0000020FEF783F9FEE782B00A4B99690122DB
:1023E0001143996199690A400092009ADA69802143
:1023F00049050A43DA61DB690B400193019B02B096
:102400007047C04600100240FEE7FEE77047704785
:1024100010B5FEF7BBF910BD10B50248FFF712F872
:1024200010BDC0462C05002010B50248FFF70AF881
:1024300010BDC0462C05002010B50248FFF702F879
:1024400010BDC0467405002010B5034B834200D078
:1024500010BDFEF7EDF8FBE77405002070470000A3
:1024600000B58DB02422002103A800F087FA0822CD
:10247000002101A800F082FA1148124B03600023EA
:1024800043608360104AC260036183610133039338
:102490000593099303A9FFF741F900280AD1002306
:1024A0000193029301A90648FFF74EFC002804D1CE
:1024B0000DB000BDFFF736FFF1E7FFF733FFF7E799
:1024C000BC05002000040040FFFF000010B50A48D2
:1024D0000A4B03602F23436000238360084AC260D5
:1024E000036143618361FFF795F8002800D110BDB7
:1024F000FFF718FFFBE7C0467405002000480140C5
:102500004FC3000010B588B004001422002103A8B6
:1025100000F034FA2368254A934204D0244A9342B7
:1025200030D008B010BD234B9969802000010143D1
:1025300099619A6902400092009A5A698021890241
:102540000A435A615B690B400193019B8023DB00C6
:102550000393022304930793902003A9C005FEF779
:102560007FF9002200210D20FEF722F90D20FEF751
:102570004FF9002200210E20FEF71AF90E20FEF777
:1025800047F9CEE70B4A91698020C002014391616F
:10259000936903400293029B002200211620FEF75C
:1025A00007F91620FEF734F9BBE7C046002C0140BE
:1025B000004801400010024010B588B00400142209
:1025C000002103A800F0DAF92268114B9A4201D0E9
:1025D00008B010BD0F4BD96902221143D961D969E6
:1025E000114001910199596980208002014359618C
:1025F0005B6903400293029BC02303930492BF3B99
:102600000793902003A9C005FEF72AF9E0E7C0462A
:10261000000400400010024010B586B004001422EF
:10262000002101A800F0AAF922680E4B9A4201D0BD
:1026300006B010BD0C4A51698020800201435161EF
:10264000536903400093009B80239B000193FF3B51
:10265000FF3B02930593902001A9C005FEF700F906
:10266000E6E7C046002C01400010024000B59BB0D8
:102670001022002116A800F081F90822002114A8D8
:1026800000F07CF91C2200210DA800F077F910223F
:10269000002109A800F072F92022002101A800F011
:1026A0006DF93B483B4B03602F234360002383605D
:1026B000394AC260036143618361FEF7ABFF0028C2
:1026C0004DD180235B01169316A93148FFF7D4F949
:1026D000002847D12E48FEF7C9FF002845D12C48D5
:1026E000FEF7F0FF002843D100231493159314A99B
:1026F0002748FFF729FB00283DD160230D930023D5
:102700000E930F93109311931293139304220DA918
:102710001F48FFF7A1F8002830D1002309930122B8
:102720000A920B930C93073209A91948FFF732F963
:10273000002826D100230193029303930493059369
:10274000802292010692089301A91148FFF72AFB03
:10275000002819D10E48FFF75FFF1BB000BDFFF73F
:10276000E1FDAEE7FFF7DEFDB4E7FFF7DBFDB6E71F
:10277000FFF7D8FDB8E7FFF7D5FDBEE7FFF7D2FDBD
:10278000CBE7FFF7CFFDD5E7FFF7CCFDE2E7C0468B
:102790002C050020002C0140E703000010B50C4878
:1027A0000C4B036096231B02436000238360C360CD
:1027B00003610C2242618361C36103624362FFF7DC
:1027C00029FD002800D110BDFFF7ACFDFBE7C04696
:1027D000040600200038014010B588B0040014221F
:1027E000002103A800F0CAF82268134B9A4201D0D6
:1027F00008B010BD114B99698020C0010143996157
:102800009A6902400192019A5A69802189020A4319
:102810005A615B690B400293029B0C2303930A3BB2
:10282000049301330693023B0793902003A9C0054C
:10283000FEF716F8DCE7C046003801400010024001
:102840000D488546FFF70AFE0C480D490D4A002346
:1028500002E0D458C4500433C4188C42F9D30A4A55
:102860000A4C002301E013600432A242FBD300F0C3
:1028700011F8FFF798FDFEE700100020000000208F
:102880003C040020082C00083C0400209006002096
:10289000FEE7000070B50C4D0C4E761BB61005D04F
:1028A000002408CD01349847A642FAD100F03CF943
:1028B000074D084E761BB61005D0002408CD013414
:1028C0009847A642FAD170BDFC2B0008FC2B0008EB
:1028D000FC2B0008042C0008F0B5C64600B50F2AF2
:1028E00041D903270D003E0005430C0003002E4094
:1028F0002F423DD11500103D2D09A8462D01AC46B3
:10290000844427681D001F6067685F60A7689F6038
:10291000E7681034DF6010336545F2D145460F2378
:102920000C2401352D01491913404519144222D0B8
:102930008C59AC5104369C1B032CF9D8043B9B08E2
:1029400001339B00ED18C91803231A40561E002AB4
:1029500006D00023CC5C1A00EC5401339642F9D126
:1029600080BCB846F0BD0500561E002AF1D1F7E73D
:102970000500561EEDE71A00F6E7C046F0B5050063
:10298000830749D0541E002A45D003000326CAB24B
:1029900002E00135013C3ED301332A703342F8D1C5
:1029A000032C30D9FF220A40150215432A0415438F
:1029B0000F2C34D92700103F3F093E01B4461E00BA
:1029C0001A0010366644156055609560D560103267
:1029D000B242F8D101373F01DB190F270C22274003
:1029E00022403C00002A0ED03E1FB608B400A44688
:1029F0001A001C1D644420C2A242FCD103240136EB
:102A0000B6009B193C40002C05D0C9B21C191970A6
:102A100001339C42FBD1F0BD03001400C0E7270046
:102A2000E2E7C046034B10B5002B02D0024800F08D
:102A300005F810BD000000004D2A000810B5010087
:102A400000230022002000F019F810BD70B5074DDA
:102A5000074C641BA41005D0013CA300EB58984719
:102A6000002CF9D100F066F870BDC046042C0008B7
:102A7000082C00087047C0467047C046F0B5D646DF
:102A80004F464646C0B5264F82B00600386892468B
:102A900098468946FFF7EEFF224B1B680193A4235B
:102AA000019A5B00D558002D2ED06C681F2C30DCAD
:102AB000002E0FD1631C6B604B460234A4003868B3
:102AC0006351FFF7D9FF002002B0E0BCBA46B1461F
:102AD000A846F0BD882251462800A300EB18995063
:102AE000873AA2408930FF30016811430160842198
:102AF000404649005850022EDCD12B008D33FF3365
:102B000019680A431A60D5E715004D35FF35D550D1
:102B1000CBE73868FFF7B0FF01204042D4E7C0465A
:102B200038040020F82B0008F8B5C046F8BC08BCF3
:102B30009E467047F8B5C046F8BC08BC9E46704734
:102B4000F403000880030008DC0200089402000877
:102B5000DC020008BC030008DC0200089402000844
:102B60008003000880030008BC03000894020008EA
:102B70009A0200089A0200089A020008CA03000894
:102B80008003000880030008DC02000890020008AF
:102B9000DC020008BC030008DC0200089002000808
:102BA0008003000880030008BC03000890020008AE
:102BB0009A0200089A0200089A020008C603000858
:102BC00002030405060708090A0B0C0D0E0F10106E
:102BD0000102030405060708090A0B0C0D0E0F106D
:102BE00000000000000000000102030406070809BD
:0C2BF0000000000001020304100000209F
:082BFC00252A0008E900000889
:042C0400C100000803
:102C0800010000000400000000127A00000000002B
:102C180000000000FC02002064030020CC03002018
:102C2800000000000000000000000000000000009C
:102C3800000000000000000000000000000000008C
:102C4800000000000000000000000000000000007C
:102C5800000000000000000000000000000000006C
:102C6800000000000000000000000000000000005C
:102C7800000000000000000000000000000000004C
:102C8800000000000000000000000000000000003C
:102C9800000000000000000000000000000000002C
:102CA800000000000000000000000000000000001C
:102CB800000000000000000001000000000000000B
:102CC8000E33CDAB34126DE6ECDE05000B000000D0
:102CD80000000000000000000000000000000000EC
:102CE80000000000000000000000000000000000DC
:102CF80000000000000000000000000000000000CC
:102D080000000000000000000000000000000000BB
:0C30380000000000000000008C060020DA
:040000050800284186
:00000001FF
