:020000040800F2
:1000000000100020DD2A00089D260008A126000817
:1000100000000000000000000000000000000000E0
:10002000000000000000000000000000A5260008FD
:100030000000000000000000A9260008AD2600080E
:100040002D2B0008000000002D2B00082D2B000890
:100050002D2B00082D2B00082D2B00082D2B000820
:10006000000000002D2B00082D2B00082D2B000870
:100070002D2B0008B5260008C5260008000000004A
:100080002D2B000800000000000000002D2B0008B0
:10009000000000002D2B0008D52600082D2B00089D
:1000A000000000002D2B0008000000002D2B000890
:1000B0000000000000000000000000000000000040
:1000C00010B5064C2378002B07D1054B002B02D02E
:1000D000044800E000BF0123237010BD3C04002051
:1000E00000000000C42D0008044B10B5002B03D005
:1000F0000349044800E000BF10BDC04600000000F6
:1001000040040020C42D0008002243088B4274D311
:1001100003098B425FD3030A8B4244D3030B8B4208
:1001200028D3030C8B420DD3FF22090212BA030C11
:100130008B4202D31212090265D0030B8B4219D3F2
:1001400000E0090AC30B8B4201D3CB03C01A524112
:10015000830B8B4201D38B03C01A5241430B8B425A
:1001600001D34B03C01A5241030B8B4201D30B0343
:10017000C01A5241C30A8B4201D3CB02C01A52416A
:10018000830A8B4201D38B02C01A5241430A8B422D
:1001900001D34B02C01A5241030A8B4201D30B0216
:1001A000C01A5241CDD2C3098B4201D3CB01C01A30
:1001B000524183098B4201D38B01C01A524143093A
:1001C0008B4201D34B01C01A524103098B4201D328
:1001D0000B01C01A5241C3088B4201D3CB00C01A95
:1001E000524183088B4201D38B00C01A524143080D
:1001F0008B4201D34B00C01A5241411A00D2014632
:10020000524110467047FFE701B5002000F006F8A4
:1002100002BDC0460029F7D076E770477047C04658
:10022000F0B54F464646D6464502C0B547000C1CC1
:100230006D0A3F0EC60F002F00D170E0FF2F00D1D6
:1002400075E0EB008025ED041D43002399469A4696
:100250007F3F6002430A984663001B0EE40F002BA9
:100260004ED0FF2B46D04246D0008022D20402431B
:10027000904600227F3B3100FF1A4B466140C9B2D5
:1002800013430F2B00D9B5E06E489B00C3589F461F
:10029000002398462600454692465346022B00D13D
:1002A00089E0032B00D19EE0012B18D03B007F3367
:1002B000002B69DD6A0704D00F222A40042A00D0EF
:1002C00004352A0103D5604B1D403B008033FE2BD3
:1002D00000DD70E0AD016D0AD8B202E00E00002032
:1002E0000025C0052843F6073043E0BCBA46B146B6
:1002F000A846F0BD4346002B3FD10222FF3F03E05A
:100300004346002B2DD1012231004B466140C9B23A
:1003100013430F2B34D84D489B00C3589F46002DE4
:1003200013D104239946033B00279A4691E7002DF9
:1003300005D108239946063BFF279A4689E70C23F7
:100340009946093BFF279A4683E7280000F010F9F9
:100350007627431F9D4000237F4299469A463F1AC5
:1003600077E7404600F004F94246431F9A4076235F
:100370005B4290461B1A00227DE7FF2303227AE7A7
:100380000E00FF200025ACE70120C01A1B28A6DCC8
:100390009E372A00BD40C2406B1E9D4115436B072E
:1003A00004D00F232B40042B00D004356B0144D51F
:1003B0000120002595E7FF20002592E780250026F3
:1003C000FF20ED038DE7002398468020C0030542FF
:1003D00009D04346034206D1454605436D02260037
:1003E000FF206D0A7DE78020C00305436D02FF20DA
:1003F0006D0A76E742466B015001834219D21B22F7
:100400000025013F01261C006D005B00002C01DB74
:10041000984201D81B1A3543013A002AF3D15A1EDB
:1004200093411D433B007F330E00002B00DD41E76D
:10043000AAE71A2201251B1AE4E7AD0100206D0A84
:100440004FE7C046DC2D0008FFFFFFF71C2E000819
:10045000F8B5002813D0C317C6185E40C40F30008B
:1004600000F086F89E2305001B1A962B0FDC082847
:1004700001DD083DAE407602760AD8B202E00024E3
:1004800000200026C0053043E4072043F8BD992B27
:100490000CDD05223100121AD1400A0001003000A3
:1004A0001B318840411E884102431600052D12DC95
:1004B00031000D4F3940720709D00F203040042819
:1004C00005D004314A0102D59F2339405B1B8901C5
:1004D0004E0AD8B2D6E76A1F96403100024F394023
:1004E0007207F4D0E9E7C046FFFFFFFB70B5051EB9
:1004F0000ED000F03DF89E2304001B1A962B0CDC56
:10050000082801DD083CA5406D026D0AD8B201E063
:1005100000200025C005284370BD992B09DD02008D
:1005200029001B3291404A1E91410522121AD540E2
:100530000D43052C12DC29000C4E31406A0709D00E
:100540000F202840042805D004314A0102D59F23FA
:1005500031401B1B89014D0AD8B2DBE7621F954071
:100560002900024E31406A07F4D0E9E7FFFFFFFBA4
:100570001C2101231B04984201D3000C10391B0AD3
:10058000984201D3000A08391B09984201D3000997
:10059000043902A2105C40187047C04604030202EE
:1005A0000101010100000000000000004A21482272
:1005B00010B50F4B0F4C9A5C585C5043FFF748FF47
:1005C000FE2100230C4A20600C4889056360A3606B
:1005D0002361E36023626161A361E36110605360A2
:1005E00093601361136251619361D36110BDC04682
:1005F000B4040020580400207C0400200000C842FD
:1006000010B50D4C482220000C4902F0B3FA4823E3
:100610000B4A3C21E25200220A4B20001A805A6009
:100620009A600022DA604A23A022E25401F0CCF85A
:10063000054800F0B9FE10BDB404002058050020A4
:1006400011440000A0040020E8050020F8B50025B2
:10065000144F154C3A681368526ADB06DB0F63705F
:1006600065572B045D1BA368AD18E81A6560FFF79A
:10067000EFFE4923061CF85CFFF738FF011C301C15
:10068000FFF7CEFD4A23E060061CF85CFFF72EFF63
:10069000011C301CFFF7C4FD0023A56020612370FE
:1006A000F8BDC046B4040020A004002070B590241A
:1006B000E40520000022102100F01AFA2000002298
:1006C000202100F015FA0C4C0C4D48222900200086
:1006D00002F050FA0423EA680026A3644833E25487
:1006E00000220233E652280002330421E25400F0D3
:1006F000F9FE2B689E6370BD0005002058050020A0
:1007000010B5002802D001280DD010BD9020012284
:100710001021C00500F0ECF9902000222021C00536
:1007200000F0E6F9F1E7902000221021C00500F06A
:10073000DFF9902001222021C00500F0D9F9E4E77B
:100740004C220C4B995C0A1C814200D9021C4E21A0
:1007500090B25A529A6C1B68002A01D158637047B4
:10076000042A03D0082A03D01864F8E79863F6E750
:10077000D863F4E70005002010B50400FA200E4B02
:1007800080001978FFF7C0FC0C4B01001868FFF7D8
:10079000BBFC00F077F800280CD10130032C00D905
:1007A00010BD02380022210000F02EF8044B00207A
:1007B0001C60F5E70120F3E700000020080000209E
:1007C000040000201021064A10B5136803200B43D3
:1007D0001360FFF7D1FF01F049FF002010BDC046B4
:1007E00000200240034A044B11681B785B18136019
:1007F0007047C0465405002000000020014B1868D7
:100800007047C0465405002070B5002814DB154B16
:1008100003229C46FF23840810401A00C026C00013
:10082000890182400B408340A4006444B600A5596E
:1008300095432B43A35170BD0B4A0F2394460322CB
:1008400003401040FC321500C000890185400A4079
:100850008240083B9B089B006344DC69AC43224315
:10086000DA61E8E700E100E000ED00E0002805DBE8
:100870001F2318401E3B8340014A13607047C04647
:1008800000E100E08022431E5204012093420ED278
:10089000C021074A07485360036A09061B021B0A66
:1008A0000B430362002300209360073313607047FB
:1008B00010E000E000ED00E0F0B5DE4657464E46A1
:1008C0004546E0B50C688C460022002387B0002C1A
:1008D00000D187E08049814F8B4661460391012515
:1008E00021009D40294001912C4274D00399496810
:1008F0008A460321564631408C460139012900D8E9
:1009000077E06146032900D0BCE065469540E943A5
:1009100002910668029931402943C0250160514681
:10092000AD02294257D0594601255E4689692943BF
:10093000B161B16903262940694D0591AC4605991D
:100940001E409908B60089006144B4468D680F26A0
:10095000A9466546AE4035004E46AE43B1469026A8
:10096000F605B04212D05F4EB04200D1A4E05E4E18
:10097000B04200D1A8E05D4EB04200D195E065469E
:100980000526AE4035004E462E43B1464D468D609D
:10099000019D8026ED43AC4655467603B968354245
:1009A00000D07FE0654629405546B960F968AD0240
:1009B00000D574E065462940F96051467D68890399
:1009C0006AD461460D407D6055463968ED035ED4BA
:1009D00065462940396021000133D940023200299F
:1009E00000D07CE707B0F0BCBB46B246A946A046A3
:1009F000F0BD8168894603219140CE4302964E4660
:100A00008E430399B146CE689640B0464E46414665
:100A10000E43866041680E005146AE430D09012128
:100A20000D409D4035434560C56802990D40A8467C
:100A3000039946468D6895403543C56066466546D0
:100A40009540022E00D064E7D90889008C46844482
:100A50006146096A894607210E001E40B1000F2633
:100A600088468E404946B1434646894603990969FE
:100A7000B1408846494646463143894661464E461E
:100A80000E6246E703219140C9430291CCE7019DE4
:100A90000D43290039609EE701990D4393E7019DBD
:100AA000294389E7019D29437EE766460325B54032
:100AB0004E462E43B14669E765460126AE403500F5
:100AC0004E462E43B14661E766460225B5404E4686
:100AD0002E43B1465AE7C0460010024000040140D0
:100AE000000001400004004800080048000C0048D5
:100AF000002A01D0816170478162FCE7F0B5CE46E3
:100B0000474680B5040083B0002800D1EEE00368BA
:100B1000DA0735D50C21C34842680A40042A00D1BF
:100B200001E142681140082900D1F8E06368012B17
:100B30000FD0002B00D11EE1052B00D1A7E1B94B4E
:100B4000B9491A680A401A601A68B8490A401A6016
:100B500005E08023B34A5B0211680B431360FFF783
:100B60004DFE80260500AF4FB60205E0FFF746FEBA
:100B7000401B642800D9FCE03B683342F6D0236870
:100B80009A0729D50C22A7494868024200D1A6E05D
:100B900048680240082A00D19DE0E368A14D002B7F
:100BA00000D11FE101222B68022713432B60FFF7BE
:100BB00025FE060005E0FFF721FE801B022800D974
:100BC000D7E02B681F42F6D0F8212A6823698A43B0
:100BD000DB0013432B6023681A072DD45A0744D532
:100BE000802200208F4B5205D9698146114208D1DD
:100BF000D9691143D961DB691A400192019B012334
:100C0000994680278A4E7F0033683B4200D194E0AA
:100C1000A368012B00D1F8E0002B00D1C4E0052B24
:100C200000D140E101217F4B1A6A8A431A621A6A95
:100C300003318A431A62ECE0E3697A4D002B5BD002
:100C400001226B6A022713436B62FFF7D7FD060090
:100C500005E0FFF7D3FD801B022800D989E06B6A0D
:100C60001F42F6D023685A07BAD4DB0612D563694F
:100C7000012B00D13DE1053300D0E9E00421F8204B
:100C8000684A536B8B435363516BA3698143DB0009
:100C90000B435363236A002B1BD00C22614D696800
:100CA0000A40082A00D108E1022B00D13FE12B685D
:100CB000604A802613402B60FFF7A0FDB6040400B5
:100CC00004E0FFF79BFD001B022852D82B6833423B
:100CD000F7D100200BE04A68D20300D55DE7514A06
:100CE0001268920739D5E268012A36D0012003B094
:100CF000C0BCB946B046F0BD01226B6A02279343DF
:100D00006B62FFF77BFD060004E0FFF777FD801BB9
:100D100002282ED86B6A1F42F7D12368A3E74268E6
:100D2000D20300D402E73F4A1268920300D427E7B7
:100D30006268002A00D023E7D8E733683B4333607A
:100D4000FFF75CFD050004E0FFF758FD401B642839
:100D50000FD833683B42F7D05AE7F825314822696B
:100D60000168D200A9430A4302601A0700D435E79C
:100D700062E70320BBE72B4D2B4A2B6880271340EB
:100D80002B602B68294ABF0213402B60FFF736FD0A
:100D9000060004E0FFF732FD801B6428E9D82B68C9
:100DA0003B42F7D12368EBE601221E4E224D336A07
:100DB00093433362336A033293433362FFF71EFD7A
:100DC00002230700984604E0FFF718FDC01BA84265
:100DD000CFD84246336A1A42F6D14B46012B4FD048
:100DE000236842E701222B68022793432B60FFF719
:100DF00005FD060004E0FFF701FD801B0228B8D8BE
:100E00002B681F42F7D12368E6E606490A6A1343B6
:100E10000B62FFF7F3FC034B060098460227064DD2
:100E200011E0C04600100240FFFFFEFFFFFFFBFF86
:100E300000700040FFFFFFFE88130000FFF7DEFC9C
:100E4000801BA84295D843461B6A1F42F6D0C4E7D0
:100E50000422534D02276B6B13436B636B6B033A96
:100E600093436B63FFF7CAFC060005E0FFF7C6FC7F
:100E7000801B022800D97CE76B6B1F42F6D109E783
:100E8000474A4849D3690B40D3612368EDE6802285
:100E9000434BD20219680A431A6080221968520231
:100EA0000A431A605BE604213D4B1A6A0A431A6240
:100EB0001A6A03390A431A62ABE7012B00D115E71E
:100EC00080236A68E96A656A5B0201201340AB42CD
:100ED00000D00CE70F230B40E16A8B4200D006E7FD
:100EE000F02080030240A06A101A431E9841C0B24D
:100EF000FDE604212A4D02276A6B0A436A636A6B86
:100F000013436B63FFF77AFC060005E0FFF776FCFE
:100F1000801B022800D92CE76B6B1F42F6D0F8210A
:100F20006A6BA3698A43DB0013436B63B2E62B68E9
:100F30001D4A802713402B60FFF760FCBF040600AA
:100F400005E0FFF75BFC801B022800D911E72B6846
:100F50003B42F6D10F22EB6A114E9343E26A1343F0
:100F6000EB62616AA36A6A680B4310490A40134343
:100F70006B6080232A685B0413432B60FFF73EFC01
:100F800080250400AD0405E0FFF738FC001B0228B3
:100F900000D9EEE633682B42F6D00020A7E6C04623
:100FA00000100240FFFFFFEFFFFFFFFEFFFFC2FF49
:100FB000F8B5CE46474604000D0080B500280DD098
:100FC00001234A490A681A40AA420CD20A689A4385
:100FD0002A430A600A681340AB4204D00120C0BC17
:100FE000B946B046F8BD23689A070ED55A0705D50D
:100FF000E0223F49D200486802434A60F0203C4961
:101000004A688243A06802434A60DB0722D5384B16
:1010100062681B68012A5BD0022A56D09B07DDD587
:101020000321334E73688B4313437360FFF7E6FB72
:101030000C2398462F4B0700994604E0FFF7DEFB90
:10104000C01B484547D8434672681A4063689B00F6
:101050009A42F3D10121254A13680B40AB4205D9CE
:1010600013688B43136013681942B7D123685B0779
:1010700006D51F4A204953680B40E1680B43536073
:101080000C231B494A681340082B0ED01B48184BF1
:101090001B4A5B681B061B0FD35CD840194B1860BA
:1010A0000320FFF769FB002099E7C96A0733900C1A
:1010B0001840154C0B401549245CC95CD3030CD572
:1010C0000E48FFF721F86043E1E79B01A8D485E7CC
:1010D0009B03A5D482E7032081E763011B1B9801D2
:1010E000C01AC00000190002D1E7C046002002402B
:1010F0000010024088130000FFF8FFFF00127A0082
:10110000802E0008080000205C2E00086C2E0008CD
:101110000C23104910B54A681340082B01D00E4823
:1011200010BDC96A0733900C18400C4C0B400C4999
:10113000245CC95CD30304D50748FEF7E5FF604390
:10114000EEE763011B1B9801C01AC00000190002E2
:10115000E6E7C0460010024000127A005C2E00084C
:101160006C2E0008044B054A5B685B055B0FD35C83
:10117000034A1068D840704700100240902E0008C3
:1011800008000020F0B5CE46474680B5036804004D
:1011900083B0DA0330D58022434B5205D96900274A
:1011A000114241D08026414D76002B68334249D010
:1011B0003D4DC0222B6A920018001040134263D0AC
:1011C00061680A4082420ED08022286A2E6A52024A
:1011D00032432A622A6A364B364E034032402A6234
:1011E0002B62C3073FD4304A3148136A03400B4394
:1011F0001362012F51D02368DA0706D503202A494C
:101200000A6B8243A06802430A6300209B0606D54E
:101210001021254A136B8B43E1680B43136303B022
:10122000C0BCB946B046F0BD8026D9691F4D1143F8
:10123000D961DB6976001A400192019B2B68013766
:101240003342B5D12B6833432B60FFF7D7FA804682
:101250002B683342ACD1FFF7D1FA4346C01A642859
:10126000F6D90320DBE7FFF7C9FA02239846124BB1
:101270000600994604E0FFF7C1FA801B4845F0D804
:1012800042462B6A1A42F6D0074A0948136A616837
:1012900003400B431362012FADD1D36907490B40C3
:1012A000D3612368A8E7C0460010024000700040E8
:1012B000FFFCFFFFFFFFFEFF88130000FFFFFFEFB3
:1012C00010B5041E62D03D23C35CDAB2002B4FD0B0
:1012D0003D230222E25423682D491A688B4215D01F
:1012E0002C498B4249D02C498B424AD02B498B4206
:1012F00010D02B498B420DD080218A43A1690A432B
:101300001A60E268DA6262689A6212E070218A43C7
:10131000A1680A4323490A4021690A4380218A437C
:10132000A1690A431A60E268DA6262689A626269D5
:101330001A6301225A6119690A4202D0196991435C
:101340001961012346220020A354083AA354013214
:10135000A3540132A3540132A3540132A3540132E5
:10136000A3540132A3540132A354083AA35410BD2C
:101370003C33C25401F0D6FAAAE770218A43A1682F
:101380000A4308490A4021690A43B5E70120EEE70C
:10139000002C0140000400400020004000440140B7
:1013A00000480140FFFCFFFF3D22815C030001205B
:1013B00001290FD1013199541B68DA680243DA60C0
:1013C0000B4A934207D00B4A934204D01A68104349
:1013D000186000207047072299680A40062A05D045
:1013E00001211A6800200A431A60F3E70020F1E7A0
:1013F000002C0140000400407047C04610B5041E98
:1014000062D03D23C35CDAB2002B4FD03D230222D1
:10141000E25423682D491A688B4215D02C498B421F
:1014200049D02C498B424AD02B498B4210D02B49B2
:101430008B420DD080218A43A1690A431A60E26879
:10144000DA6262689A6212E070218A43A1680A43F4
:1014500023490A4021690A4380218A43A1690A433A
:101460001A60E268DA6262689A6262691A6301224B
:101470005A6119690A4202D019699143196101231D
:1014800046220020A354083AA3540132A354013247
:10149000A3540132A3540132A3540132A3540132A4
:1014A000A3540132A354083AA35410BD3C33C25490
:1014B000FFF7A2FFAAE770218A43A1680A430849FF
:1014C0000A4021690A43B5E70120EEE7002C0140FC
:1014D000000400400020004000440140004801405A
:1014E000FFFCFFFF002922D13E23C25C012A32D13A
:1014F0000222C2541F2211401E3A8A400368196A10
:1015000091431962196A0A431A62214A934224D00C
:10151000204A93422DD0204A93422AD01F4A934218
:1015200020D0012100201A680A431A60704704295C
:1015300025D008290BD04123C25C012A0BD10429F4
:1015400021D00829D4D140230222C254D2E740231B
:10155000C35C012BF7D00120E8E78022596C12020E
:101560000A435A64072299680A40062AD9D1002002
:10157000DCE78022596C12020A435A64CEE73F230B
:10158000C35C012BE7D13F230222C254B2E7C0461D
:10159000002C01400044014000480140000400408C
:1015A0007047C04610B5041E62D03D23C35CDAB25A
:1015B000002B4FD03D230222E25423682D491A68A4
:1015C0008B4215D02C498B4249D02C498B424AD0B2
:1015D0002B498B4210D02B498B420DD080218A435E
:1015E000A1690A431A60E268DA6262689A6212E0EC
:1015F00070218A43A1680A4323490A4021690A43AA
:1016000080218A43A1690A431A60E268DA6262684B
:101610009A6262691A6301225A6119690A4202D008
:10162000196991431961012346220020A354083A05
:10163000A3540132A3540132A3540132A354013202
:10164000A3540132A3540132A3540132A354083AE3
:10165000A35410BD3C33C254FFF7A2FFAAE7702188
:101660008A43A1680A4308490A4021690A43B5E749
:101670000120EEE7002C0140000400400020004063
:101680000044014000480140FFFCFFFFF8B50400A2
:101690000D00002800D183E03D23C35CDAB2002BAB
:1016A00000D16FE03D230222E25423683D499A684D
:1016B0000A403D499A601A688B4215D03B498B42DB
:1016C00065D03B498B4266D03A498B4210D03A49AB
:1016D0008B420DD080218A43A1690A431A60E268D7
:1016E000DA6262689A6212E070218A43A1680A4352
:1016F00032490A4021690A4380218A43A1690A4389
:101700001A60E268DA6262689A6262691A630122A8
:101710005A6119690A4202D019699143196198689E
:101720002A6899691043264AAF681140AA691E6A5F
:1017300012023A430A4323492F691140EA693F01E3
:1017400012023A43EF683A432F6A3F033A430A438F
:10175000AA218E4331006E696D6836012E430E4317
:1017600098609A611E62462201230020A354083A21
:10177000A3540132A3540332A3540132A354063AB2
:10178000A354F8BD3C33C25401F026F98AE7702116
:101790008A43A1680A4309490A4021690A4399E733
:1017A0000120EEE7F8BFFFFF002C014000040040DD
:1017B000002000400044014000480140FFFCFFFFC2
:1017C000FCFCFFFF0303FFFFF0B5C64603003E220B
:1017D0003F27422600B59446805CDA5D9C5DC0B22E
:1017E000E4B2A04643241D5DD2B2EDB200291AD165
:1017F000012803D0012080BCB846F0BD4246012A32
:10180000F9D1614601325A5441469A551B681A6A09
:101810008A431A621C6A0C431C6201211A68002068
:101820000A431A60E7E7042916D00128E2D1012A09
:10183000E1D14246012ADED1012DDCD161460132DF
:101840005A54DA559A551A551B681A6AAA431A62ED
:101850001A6A15431D6208E00120012ACBD1012D2F
:10186000C9D10132DA551A551B68196A0F30814304
:1018700019621A6A02431A62CFE7C04603003C208D
:10188000F0B5CE4647461C5C80B5012C00D1B9E0CE
:1018900001241C54002A2FD11A684868156A5A4E30
:1018A000AC46156A8146A5430F68C86815629569FC
:1018B000B24251D0554EB2424ED02C43F025AC43EB
:1018C0002500FF24000104402C430A206546946152
:1018D0000C24854338402843106290698968A043EE
:1018E000906190690143002091613C22002199544C
:1018F000C0BCB946B046F0BD042A5CD0082A30D03E
:1019000001200C2AF1D11A68414F156A0C68AC46C7
:10191000156A48683D40CE681562D7693D4D360767
:101920002F40050260463D433B4F89682F40350CF0
:101930003A4E3D4306402003A02424022040304379
:10194000D5611062D069364C09022040D061D0695F
:101950000143D1610020C8E70324A5432C004D4674
:10196000ABE71A680C68106A166A80462D484D6805
:101970000640CF681662D6690530FF30864335438E
:10198000F026B5432E00FF2540463F013D4035433C
:10199000254ED56106402002A024240120400C24BD
:1019A00030431062D0698968A043D061D069014397
:1019B000D161002099E7102508681A688446176AE3
:1019C000106A4E68A843CC681062956911482407D4
:1019D000054030022843104D89680540200C2843FB
:1019E0006546A0242D01A7432C403C43906114621E
:1019F00090690B4C0902204090619069014391610C
:101A0000002072E7022073E7002C01400004004030
:101A1000FFEFFFFFFFFCFFFFFF0FFFFFFF5FFFFF79
:101A2000FFF3FFFFFFFEFFFFFFF5FFFF03003C207A
:101A3000F0B51C5C012C00D1DFE001241C54082A05
:101A400000D1ADE034D8002A00D17EE0042A61D173
:101A500010251A68784F106A146AAC431462774DE7
:101A6000566894692C400D682D0225432024A0431C
:101A70008C6824010443BA4257D0714FBA425CD0FB
:101A8000704FBA4259D04868566095619063802083
:101A90001462946900012043906190696A4C09695D
:101AA000204090619069090201439161002032E079
:101AB0000C2A2FD11A68654C106A156A25401562E8
:101AC0005E4C5768D56925400C682602604C35434A
:101AD0000440886800032043574CA2421FD0584C52
:101AE000A2421CD0574CA24219D04C685760D56115
:101AF000146410628020D46900012043D061D06951
:101B0000514C09692040D061D06909020143D1617B
:101B1000002000E001203C2200219954F0BD4D4CF2
:101B200027404C69A6013743DFE78020844320002B
:101B3000CC68240104434020844347484F69304027
:101B40008E693E43B60006439DE773271A68106A04
:101B5000156AA5431562566894690D68BC43713FC8
:101B6000B8432C43344F8D682843BA4247D0344D94
:101B7000AA4244D0334DAA4241D0566094614C6889
:101B80000969546308241062906920439061906948
:101B9000043CA04390619069014391610020BAE741
:101BA00073261A682D4D106A146A0F682C4014624F
:101BB0005568D469B4432743294C1F4E20408C6894
:101BC00024020443B24227D01D4EB2422BD01D48FE
:101BD000824228D048685560D761D06314620824D7
:101BE000D06909692043D061D069043CA043D06129
:101BF000D0690143D16100208DE702208EE70825DE
:101C0000A843CD688F6928430425A843154D354066
:101C10004E693E432E43B0E713482040CC6824026F
:101C200004430948044011484E6928408D693543F2
:101C30002D010543CEE7C046002C0140FF8CFFFF7D
:101C40000044014000480140FFFBFFFFFFEFFFFFA2
:101C5000FFDFFFFFFFBFFFFFFFF3FFFFFFFEFFFF01
:101C6000FFFDFFFFFFFCFFFFFFF7FFFFFFCFFFFFC1
:101C70003C2370B50200C05C012800D177E001244C
:101C80000220D4540133D0541068544D83682B4043
:101C900083600B68602B00D16BE025D8402B00D10E
:101CA00082E054D9502B3DD1066A036A4D68A343A4
:101CB000F024C96803628369A3431C000B010A2155
:101CC0008E4331002343294383610162702183687D
:101CD0008B4319390B43836000203D230121D154EC
:101CE0000021013BD15470BD80246401A3423CD04B
:101CF0008024A401A34217D18368394C4D681C404D
:101D00008B68C9682B4309020B43234383608023FC
:101D10008168DB010B4383600020DEE710211C009B
:101D20008C4319D00120D8E7702BFBD183682C4C51
:101D30004D681C408B68C9682B4309020B4377210F
:101D40002343836083680B4383600020C5E7202B17
:101D500002D0E3D9302BE5D170248168A1430B4335
:101D600007210B4383600020B7E70020B5E702207E
:101D7000B9E71026036ACD684C68016AB143016275
:101D80008169184E0E402903A025AB431D00314345
:101D90008161702123012B43036283688B430939DE
:101DA0000B438360002098E7066A036A4D68A343EB
:101DB000F024C96803628369A3431C000B010A2154
:101DC0008E4331002343294383610162702183687C
:101DD0008B4329390B43836000207EE78800FFFF97
:101DE000FF00FFFFFF0FFFFF7047C0467047C04670
:101DF0007047C0467047C0460222036870B5DE686F
:101E00001D6904002A4201D032425AD104232B42D8
:101E100001D0334241D108232B4201D033422AD191
:101E200010232B4201D0334214D101232B4201D085
:101E300033425AD180232B4201D033425DD140231B
:101E40002B4201D0334260D120232B4201D03342B8
:101E500043D170BD1122236852421A611932227790
:101E6000DA69C0239B0020001A4262D0FFF7BEFF50
:101E700000232377D9E70922236852421A610D32E1
:101E80002277DB6920009B0750D1FFF7ADFF2000D0
:101E9000FFF7AEFF00232377C2E7052223685242F3
:101EA0001A61073222779A69C0239B0020001A42E8
:101EB00039D1FFF799FF2000FFF79AFF002323771E
:101EC000A9E7053A1A61043202779B699B0724D07F
:101ED000FFF78CFF0023237798E7212223685242E3
:101EE00020001A6100F088F8B3E70222236852420A
:101EF00020001A6100F0F6FB9CE781222368524221
:101F000020001A6100F07AF899E7412223685242D2
:101F100020001A61FFF76EFF96E7FFF765FF2000CC
:101F2000FFF766FFD6E7FFF761FFC7E7FFF75EFF42
:101F3000B0E7FFF759FF2000FFF75AFF98E7C046C8
:101F40003C2330B5C35C012B1ED03D2302227025FB
:101F5000C25403685A689C68AA430D682A435A60B1
:101F60000A4A93420AD00A4A934207D03D230122EB
:101F7000C2540022013BC254002030BD8022944351
:101F80004A6814439C60F1E70220F6E7002C014008
:101F9000000400403C2210B5835C012B1ED0CC68AD
:101FA0000F4B23408C6823430E4C23404C68234343
:101FB0000D4C23400C6823430C4C23400C692343F5
:101FC0000B4C23404C69C96923430A4C23400B4303
:101FD00001684B6400238354002010BD0220FCE7FD
:101FE000FFFCFFFFFFFBFFFFFFF7FFFFFFEFFFFF20
:101FF000FFDFFFFFFFBFFFFF7047C0467047C046CF
:10200000436A30B51A0706D50168284C4A68224051
:10201000446B22434A60DA0706D50168244C4A68BB
:102020002240846A22434A609A0706D50168214CFF
:102030004A682240C46A22434A605A0706D50168AA
:102040001D4C4A682240046B22434A60DA0606D5DA
:1020500001681A4C8A682240846B22438A609A067F
:1020600006D50168164C8A682240C46B22438A60F8
:102070005A060AD50168134D4A68046C2A40224367
:102080004A6080225203944209D01B0606D502689A
:102090000D4953680B40816C0B43536030BD4A6857
:1020A0000A4C2240446C22434A60EEE7FF7FFFFF68
:1020B000FFFFFDFFFFFFFEFFFFFFFBFFFFEFFFFF47
:1020C000FFDFFFFFFFFFEFFFFFFFF7FFFFFF9FFFB8
:1020D000F0B584230022C646040000B5C250FEF7C6
:1020E0008DFB236805001A6812070FD41A6852077F
:1020F0003ED420238022E367A35000230020083A27
:1021000023666366A35480BCB846F0BDDA699202C8
:10211000ECD48026082304279846B60410E02368F0
:102120001A68174209D04146DA6911425ED180220D
:10213000D9691201114200D089E0DA699202D5D43E
:10214000FEF75CFB401BB042E9D3EFF310810123A3
:1021500083F310888020226813688343136081F31F
:10216000108820230022E3675833E2547D38CAE701
:10217000DB695B02BDD48026082304279846B60499
:1021800011E023681A6817420AD04146DA69114201
:1021900000D08CE08022D9691201114200D0B7E052
:1021A000DB695B02A5D4FEF729FB401BB042E8D3F4
:1021B000EFF31080012282F3108821686C4D0B68C8
:1021C0002B400B6080F31088EFF3108082F31088AF
:1021D00021688B6893438B6080F3108880231F32C3
:1021E000E2500022083B0320E2548CE71962EFF32F
:1021F0001080012282F3108821685D4D0B682B400E
:102200000B6080F31088EFF3108082F31088216850
:102210008B6893438B6080F31088236E012B0AD167
:10222000EFF3108183F31088102022681368834332
:10223000136081F31088802320220821E2500023BC
:1022400064322366A366A1500C3AA3547DE71A6258
:10225000EFF31080012282F310882168444D0B684F
:102260002B400B6080F31088EFF3108082F310880E
:1022700021688B6893438B6080F31088236E012B59
:102280000AD1EFF3108183F31088102022681368BD
:102290008343136081F31088202280238421E2503D
:1022A00000232366A36662505832A3544DE7196297
:1022B000EFF31080012282F3108821682C4D0B6807
:1022C0002B400B6080F31088EFF3108082F31088AE
:1022D00021688B6893438B6080F31088236E012BF9
:1022E0000AD1EFF3108183F310881020226813685D
:1022F0008343136081F31088802320220821E25059
:10230000002364322366A366A1500C3AA3544FE71E
:102310001A62EFF31080012282F310882168144DB5
:102320000B682B400B6080F31088EFF3108082F372
:10233000108821688B6893438B6080F31088236E2C
:10234000012B0AD1EFF3108183F31088102022684B
:1023500013688343136081F3108820228023842133
:10236000E25000232366A36662505832A3541FE74D
:10237000DFFEFFFF70B5041E00D17AE0C36F002BB3
:1023800000D171E0242301212268E36713688B43A5
:102390001360636A002B62D12569A36810682B4320
:1023A0006569E1692B434C4D0B432840034313609F
:1023B00053684A48256A0340E06803435360A369B1
:1023C00090682B43464D284003439360454B1A6B5E
:1023D00003231340013B022B0CD980231B0299429B
:1023E00000D175E0FEF7BEFE002811D12368A0667B
:1023F000E0661DE080203C4A0002D35C81423AD076
:10240000042B5BD024D8002BECD0022B22D13748F0
:10241000636861685B081818FDF776FE0200344BAC
:10242000103A9A4216D800222368D860A266E26663
:102430005A68304920000A4008215A609A688A4345
:102440009A601A6807390A431A60FFF741FE05E0EF
:10245000082BDDD000230120A366E36670BD2000B9
:10246000FFF7CEFD226897E77822835400F002FB45
:1024700088E70120F2E7042B23D01AD8002B27D0BD
:10248000022BE7D11C48636861685B081818FDF7E8
:102490003BFE0200164B103A9A42DBD8174A2368DB
:1024A00002400007400F10430022D860A266E26697
:1024B000BEE7082BCED180204002E4E7FEF728FEDD
:1024C00092E7FEF725FE002800D18FE74000DAE70B
:1024D000FEF748FEF7E7C046F369FFFFFFCFFFFFB7
:1024E000FFF4FFFF001002407C2E000800127A006B
:1024F000EFFF0000FFF7FFFF0024F400F0FF0000F3
:10250000F0B58BB01422002104A800F085FB8020D8
:10251000244BC00359699024014359615A69E40569
:10252000024080200192019A596980020143596159
:1025300080215A69C90202400292029A5A691A4DD0
:102540000A435A615B6920000B400393002230214B
:10255000039BFEF7CDFA280001220221FEF7C8FAFC
:1025600001220023049205930023200004A90026E1
:1025700000270693FEF7A0F930220123200004A9CA
:102580000492059306960797FEF796F90222012317
:10259000280004A90492059306960797FEF78CF984
:1025A0000BB0F0BD001002400004004800B595B02B
:1025B000282200210AA800F02FFB102200216846E3
:1025C00000F02AFB1022002104A800F025FB0122C4
:1025D000012308920993802302225B021092119337
:1025E000802308A85B031293FEF788FA002801D025
:1025F00072B6FEE707220223009201930022002315
:102600000121684602920393FEF7D2FC002801D014
:1026100072B6FEE70123069004A80493FEF7B2FD0C
:10262000002801D072B6FEE715B000BD10B5FEF768
:10263000C9F8FFF7BBFFFFF763FF00F05FF800F09A
:102640001DF900F0F9F900F051F9FEF72FF8FDF748
:10265000D7FFFDF7ABFF0020FEF752F8FA2080000D
:10266000FEF76EF8FEE7C04672B6FEE701220A4B9F
:1026700082B099691143996199690A408021009259
:10268000009ADA6949050A43DA61DB690B40019374
:10269000019B02B07047C04600100240FEE7C046F2
:1026A000FEE7C0467047C0467047C04610B5FEF70B
:1026B00099F810BD10B50248FFF79EFB10BDC0464B
:1026C0005805002010B50248FFF796FB10BDC04624
:1026D0005805002010B50248FFF78EFB10BDC0461C
:1026E000A0050020034B10B5834200D010BDFDF7BC
:1026F000ADFFFBE7A00500207047C04610B5A2B0B3
:102700001022002108A800F087FA0822002102A860
:1027100000F082FA1C22002112A800F07DFA10229B
:10272000002104A800F078FA202200211AA800F065
:1027300073FA4E4C4E4B4F4A23602F2363600023A5
:102740002000A360E26023616361A361FEF7B8FD2E
:1027500000285CD1802320005B0108A90893FFF7C3
:1027600087FA002868D12000FEF748FE002860D1D3
:102770002000FEF717FF002858D100220023200078
:1027800002A902920393FFF7DBFB00284BD16022E2
:102790000023129213930022002314921593169291
:1027A000179300232000043212A91893FFF73EF973
:1027B000002835D100220123049205930022002332
:1027C00020000692079304A90832FFF757F8002863
:1027D00023D1002200231A921B931C921D93802365
:1027E00000229B011E921F93002320001AA921930F
:1027F000FFF7D0FB00280DD1142200210CA800F017
:102800000BFA1B4B22689A4219D022B010BDFFF779
:102810002BFF9FE7FFF728FFEEE7FFF725FFD8E73D
:10282000FFF722FFC6E7FFF71FFFB0E7FFF71CFF28
:10283000A3E7FFF719FF9BE7FFF716FF93E7802059
:102840000D4A80025169014351615369802203405E
:102850000193019B0223920090200C920D9302237E
:102860000CA9C0051093FEF727F8CEE75805002005
:10287000002C0140E70300000010024010B58CB0AE
:102880002022002104A800F0C7F908220021684690
:1028900000F0C2F9124C134B134A236000232000AE
:1028A0006360A3602361A36103A90133E260039322
:1028B00005930993FEF7EAFE00280BD100220023BE
:1028C0006946200000920193FFF73AFB002804D1EB
:1028D0000CB010BDFFF7C8FEF0E7FFF7C5FEF7E745
:1028E000E805002000040040FFFF00000A480B4BF1
:1028F00010B503602F2343600023094A8360C26040
:10290000036143618361FEF7DBFC002800D110BD49
:10291000FFF7AAFEFBE7C046A005002000480140E3
:102920004FC3000010B504008AB01422002104A88F
:1029300000F072F92368254A934204D0244A934256
:1029400031D00AB010BD8020224B000199690143AB
:10295000996180219A69890202400192019A5A691B
:1029600090200A435A615B6980220B400293029BCC
:102970000223D20004920593022304A9C005089300
:10298000FDF79AFF002200210D20FDF73DFF0D20ED
:10299000FDF76CFF002200210E20FDF735FF0E2011
:1029A000FDF764FFCDE780200A4AC0029169014328
:1029B0009161936900210340039300221620039B39
:1029C000FDF722FF1620FDF751FFBAE7002C01406A
:1029D000004801400010024010B5040088B01422E5
:1029E000002102A800F018F9114B22689A4201D088
:1029F00008B010BD02220F4B9020D969C0051143C9
:102A0000D961D9690A4080210092009A5A698902E5
:102A10000A435A615B69C0220B400193019B022368
:102A200002920393012302A90693FDF745FFDFE716
:102A300000040040001002400C480D4B10B503602C
:102A400096231B020C224360002342618360C36013
:102A500003618361C36103624362FFF78BFC00285B
:102A600000D110BDFFF700FEFBE7C0463006002096
:102A70000038014010B5040088B01422002102A8DB
:102A800000F0CAF8134B22689A4201D008B010BD7A
:102A90008020114BC00199690143996180219A6995
:102AA000890202400092009A5A6990200A435A61B2
:102AB0005B690C220B400193019B0223029203935A
:102AC000032302A90593C005023B0693FDF7F4FE1C
:102AD000DCE7C04600380140001002400D48854642
:102AE000FFF70AFE0C480D490D4A002302E0D458B6
:102AF000C4500433C4188C42F9D30A4A0A4C002348
:102B000001E013600432A242FBD300F011F8FFF79A
:102B10008DFDFEE700100020000000203C04002096
:102B2000A82E00083C040020BC060020FEE70000A0
:102B300070B50C4D0C4E761BB61005D0002408CD98
:102B400001349847A642FAD100F03CF9074D084EEF
:102B5000761BB61005D0002408CD01349847A64254
:102B6000FAD170BD9C2E00089C2E00089C2E0008F7
:102B7000A42E0008F0B5C64600B50F2A41D9032798
:102B80000D003E0005430C0003002E402F423DD1B6
:102B90001500103D2D09A8462D01AC468444276838
:102BA0001D001F6067685F60A7689F60E76810345A
:102BB000DF6010336545F2D145460F230C24013503
:102BC0002D01491913404519144222D08C59AC519A
:102BD00004369C1B032CF9D8043B9B0801339B0053
:102BE000ED18C91803231A40561E002A06D00023E8
:102BF000CC5C1A00EC5401339642F9D180BCB84643
:102C0000F0BD0500561E002AF1D1F7E70500561E5B
:102C1000EDE71A00F6E7C046F0B50500830749D096
:102C2000541E002A45D003000326CAB202E0013533
:102C3000013C3ED301332A703342F8D1032C30D902
:102C4000FF220A40150215432A0415430F2C34D9DC
:102C50002700103F3F093E01B4461E001A001036FF
:102C60006644156055609560D5601032B242F8D167
:102C700001373F01DB190F270C22274022403C007F
:102C8000002A0ED03E1FB608B400A4461A001C1D30
:102C9000644420C2A242FCD103240136B6009B1931
:102CA0003C40002C05D0C9B21C19197001339C425C
:102CB000FBD1F0BD03001400C0E72700E2E7C046E7
:102CC000034B10B5002B02D0024800F005F810BDF0
:102CD00000000000E92C000810B5010000230022CC
:102CE000002000F019F810BD70B5074D074C641BAB
:102CF000A41005D0013CA300EB589847002CF9D153
:102D000000F066F870BDC046A42E0008A82E00088A
:102D10007047C0467047C046F0B5D6464F46464657
:102D2000C0B5264F82B0060038689246984689465C
:102D3000FFF7EEFF224B1B680193A423019A5B006F
:102D4000D558002D2ED06C681F2C30DC002E0FD1F2
:102D5000631C6B604B460234A40038686351FFF774
:102D6000D9FF002002B0E0BCBA46B146A846F0BD8B
:102D7000882251462800A300EB189950873AA240B8
:102D80008930FF30016811430160842140464900C9
:102D90005850022EDCD12B008D33FF3319680A43C3
:102DA0001A60D5E715004D35FF35D550CBE73868AB
:102DB000FFF7B0FF01204042D4E7C04638040020AE
:102DC000982E0008F8B5C046F8BC08BC9E4670476F
:0C2DD000F8B5C046F8BC08BC9E46704731
:102DDC00F403000880030008DC02000894020008D9
:102DEC00DC020008BC030008DC02000894020008A6
:102DFC008003000880030008BC030008940200084C
:102E0C009A0200089A0200089A020008CA030008F5
:102E1C008003000880030008DC0200089002000810
:102E2C00DC020008BC030008DC0200089002000869
:102E3C008003000880030008BC030008900200080F
:102E4C009A0200089A0200089A020008C6030008B9
:102E5C0002030405060708090A0B0C0D0E0F1010CF
:102E6C000102030405060708090A0B0C0D0E0F10CE
:102E7C00040802000000000000000000010203042E
:102E8C0006070809000000000102030410000020DE
:082E9C00C12C0008E900000848
:042EA400C100000861
:102EA800010000000400000000127A000000000089
:102EB80000000000FC02002064030020CC03002076
:102EC80000000000000000000000000000000000FA
:102ED80000000000000000000000000000000000EA
:102EE80000000000000000000000000000000000DA
:102EF80000000000000000000000000000000000CA
:102F080000000000000000000000000000000000B9
:102F180000000000000000000000000000000000A9
:102F28000000000000000000000000000000000099
:102F38000000000000000000000000000000000089
:102F48000000000000000000000000000000000079
:102F58000000000000000000010000000000000068
:102F68000E33CDAB34126DE6ECDE05000B0000002D
:102F78000000000000000000000000000000000049
:102F88000000000000000000000000000000000039
:102F98000000000000000000000000000000000029
:102FA8000000000000000000000000000000000019
:0C32D8000000000000000000B80600200C
:0400000508002ADDE8
:00000001FF
